:100000000C9434000C9451000C9451000C94510049
:100010000C9451000C9451000C9451000C9451001C
:100020000C9451000C9451000C9451000C9451000C
:100030000C9451000C9451000C9422040C94510027
:100040000C9451000C9451000C9482040C945100B7
:100050000C9451000C9451000C9451000C945100DC
:100060000C9451000C94510011241FBECFEFD8E026
:10007000DEBFCDBF12E0A0E0B1E0E2E0FBE002C0F5
:1000800005900D92A63BB107D9F723E0A6EBB2E0AD
:1000900001C01D92AE31B207E1F70E941F050C941A
:1000A0007F050C940000CF93DF93EB01AC0120E0BF
:1000B00030E0605F7F4FDA01EC91E11579F14F5F3D
:1000C0005F4FEC3271F5FA011292DE01213010F02F
:1000D00021F41896FC010E9454052F5FCA013F5F6E
:1000E000383048F3211531F0313128F3213011F047
:1000F000353109F789E191E00E94CE048AE991E067
:10010000DE01FC010E945405DE011896FC010E94EC
:100110005405DE015096FC010E945405DF91CF91F9
:100120000895DA01EC91E111DACF2230C1F6DB015A
:10013000FC010E945405D3CF45E050E06CE371E030
:100140000E9462059C0181E0232B09F080E0089564
:100150008AB18C638AB98BB18C638BB984B1807F8F
:1001600084B985B18F6085B9089580E09BB19C63A7
:100170009BB98230D9F08330D9F08130A9F05A98F8
:100180002AE12A95F1F700C093B1E92FE17090FFC1
:1001900012C0199B10C01A9B0DC01B9B17C08F5F0C
:1001A000843021F780E008955B98EACF5C98E8CF2F
:1001B0005D98E6CFE2E024E0829FC0011124895FD0
:1001C0009E4FE80FF92FF11D80810895E3E0F3CFF2
:1001D000CF930E94B500C82F811104C0C0E08C2FBE
:1001E000CF9108952FEF89EF90E02150804090400B
:1001F000E1F700C000000E94B5008C13EFCF0E9411
:10020000B500811561F38FE19EE40197F1F700C01D
:100210000000F5CF0E94B500811521F09091B70242
:10022000981305C090E08093B702892F0895982F06
:10023000FACF249A259A2C9A2D980E9488036093CD
:10024000B8027093B9028093BA029093BB020895EA
:100250000E9488036093BC027093BD028093BE022B
:100260009093BF0285B190E2892785B90E948803E7
:100270002091BC023091BD024091BE025091BF025C
:10028000621B730B840B950B643671058105910518
:1002900068F385B190E2892785B908952D9A2C9845
:1002A00008952D982C9808952C9A2D9808950E94C1
:1002B00088036093BC027093BD028093BE0290934A
:1002C000BF028091BC029091BD02A091BE02B0918C
:1002D000BF024091B8025091B9026091BA02709188
:1002E000BB02841B950BA60BB70B853F9140A10564
:1002F000B10570F085B190E1892785B90E94880326
:100300006093B8027093B9028093BA029093BB02D3
:1003100008952C9A2D9A089545E050E00E946205B8
:100320009C0181E0232B09F080E00895382F292FCC
:10033000A82FB92F40E050E0832F922F0E9459053B
:100340004817590748F0832F922F0E9459050497A8
:1003500089F084E691E006C08C9180538A3030F0B9
:1003600085E591E00E94CE0480E0089511964F5FEC
:100370005F4FE2CF84E891E00E94CE0481E00895CF
:100380009C01CB0145E050E0B9010C94700581154A
:1003900091F09091F002943070F4E92FF0E0E45184
:1003A000FD4F80839F5F9093F0020E9428018BE9AC
:1003B00091E00E94CE048091F002843051F46CEE02
:1003C00072E080E091E00E946F03809305019093BA
:1003D00006018091050190910601089582E08093C5
:1003E0000501109206010E9488036093F102709348
:1003F000F2028093F3029093F4020E940A018A327F
:1004000041F40E947A030E94F4028EEA91E00C9477
:10041000CE0408958AEC91E00E94CE040E947A03F3
:10042000ECEEF2E084E0DF011D928A95E9F710928C
:10043000F0021092EB0287E191E0A3EDB2E0FC0143
:100440000E945405ABEDB2E0FC010E945405A3EEFE
:10045000B2E0FC010E945405A0ECB2E0FC010E9455
:1004600054050E94EF0286ED91E00C94CE040E94A8
:100470000A02C0E0D1E00E9417038330910509F41D
:1004800089C0C0F48130910509F441C00297E9F4B4
:100490000E944E0182E592E00E94CE0488EB9BE030
:1004A0000E944504C1E0811531F30E940A020E94B6
:1004B000540109C08430910509F471C0059709F40D
:1004C00073C0C111EBCFC0E0D6CF0E94EE0163E153
:1004D00070E080EC92E00E941C03811591F363EDC3
:1004E00072E080EC92E00E94530083ED92E00E9463
:1004F0009C00811539F080EF91E00E94CE040E94AB
:100500001003DFCF87E092E00E94CE04DACF0E9492
:1005100057010E940A010E94C70180930501909330
:100520000601019739F48BE192E00E94CE040E940B
:100530000203C7CF38F48BE292E00E94CE040E94FF
:100540000903BFCF0E9488032091F1023091F2028B
:100550004091F3025091F402621B730B840B950BD4
:10056000693873418105910510F0D093EB028091B9
:10057000050190910601029709F0A3CF8091EB024B
:10058000811509F49ECF8BE392E00E94CE040E9475
:10059000FB0297CF0E94510187E692E07DCF0E9437
:1005A00089018BE792E078CF60E071E08BED92E01B
:1005B0000E948C01811509F471CF89E892E00E94B4
:1005C000CE0483EE92E00E949601811509F466CF75
:1005D00060E071E083EE92E00E94C0015FCF109274
:1005E000F6021092F502089581E090E09093F602F1
:1005F0008093F502089584E090E09093F602809352
:10060000F502089582E090E09093F6028093F5025F
:10061000089583E090E09093F6028093F5020895A8
:1006200085E090E09093F6028093F5020895809122
:10063000F5029091F6020895CF93DF9300D000D099
:10064000CDB7DEB78B839C8369837A830E94A50430
:10065000811581F10E94AE049091F70229813A81BF
:10066000215031099217130668F58D3011F08A3048
:10067000B9F4911599F0EB81FC81E90FF11D10821D
:1006800088E992E00E94CE048B819C810E94CE0476
:1006900088E991E00E94CE041092F70281E00BC03D
:1006A00021E0290F2093F7022B813C81290F311D76
:1006B000F901808380E00F900F900F900F90DF91F1
:1006C000CF9108952B813C81290F311DF9011082B2
:1006D0001092F70285EA92E00E94CE04EBCF44E04C
:1006E00050E00E9447059C0181E090E0232B09F037
:1006F00080E008950E940A018111FCCF089582E0F4
:1007000084BD93E095BD80936E0089EF87BD089509
:100710002FB7F8946091F8027091F9028091FA0273
:100720009091FB022FBF0895E4E6F0E080818F7D79
:100730008083EEE68081826080830895EEE6F0E0BB
:1007400080818D7F8083E4E680818062808308954C
:100750008FB7F8941092F8021092F9021092FA02F0
:100760001092FB028FBF0895EFB7F8942091F80222
:100770003091F9024091FA025091FB02DC01CB0169
:10078000820F931FA41FB51F8093F8029093F90264
:10079000A093FA02B093FB02EFBF0895EF92FF928D
:1007A0000F931F93EFB7F8942091F8023091F9025C
:1007B0004091FA025091FB0279018A01E61AF70A88
:1007C000080B190BC701D8018093F8029093F90226
:1007D000A093FA02B093FB02EFBF1F910F91FF901D
:1007E000EF900895CF93DF93CDB7DEB728970FB67C
:1007F000F894DEBF0FBECDBF69837A838B839C8361
:100800000E9488036D837E838F8398870E9488036C
:100810002D813E814F815885621B730B840B950B94
:1008200029813A814B815C816217730784079507A0
:1008300068F328960FB6F894DEBF0FBECDBFDF91E8
:10084000CF9108951F921FB61F9211248F939F93EB
:10085000AF93BF938091F8029091F902A091FA02B0
:10086000B091FB020196A11DB11D8093F8029093F7
:10087000F902A093FA02B093FB02BF91AF919F914E
:100880008F911F901FBE1F901895CF93DF9300D0BC
:1008900000D000D0CDB7DEB78D839E830E94880341
:1008A00069837A838B839C830E94880329813A81A0
:1008B0004B815C81621B730B840B950B4D815E81B8
:1008C000641775078105910578F381E00F900F900B
:1008D0000F900F900F900F90DF91CF91089510928D
:1008E000C50087E68093C40086E08093C20088E953
:1008F0008093C10008959091C00095FFFCCF809334
:10090000C60008952F932FB72F933F938F939F93F4
:10091000EF93FF932091C6008091FD0201968F71A5
:100920003091FC02381741F0E091FD02F0E0E25016
:10093000FD4F20838093FD02FF91EF919F918F9156
:100940003F912F912FBF2F9118952091FD029091EB
:10095000FC0281E0291301C080E008959FB7F8945C
:100960002091FD028091FC02281779F0E091FC02B1
:10097000F0E0E250FD4F80812091FC022F5F3F4F5D
:100980002F712093FC029FBF089580E0FCCF9091CF
:10099000C00095FFFCCF8093C6000895CF93DF93EE
:1009A000EC018881811103C0DF91CF9108952196D8
:1009B0000E94C704F6CFFF920F931F93CF93DF934C
:1009C00000D000D000D0CDB7DEB79C01892B71F4E8
:1009D00080E30F900F900F900F900F900F90DF918A
:1009E000CF911F910F91FF900C947B04FE013196E3
:1009F000F12C8F01C9016AE070E00E943305F39485
:100A0000805D80832A30310528F031969B0185E096
:100A1000F812F0CFFA94F801EF0DF11D80810E94D9
:100A20007B04F110F7CF0F900F900F900F900F9065
:100A30000F90DF91CF911F910F91FF9008950E9429
:100A4000A8000E946F040E947F030E94190184E4A1
:100A500091E00E94CE040E94EF0278940E94370237
:100A600080E090E00895AA1BBB1B51E107C0AA1FBC
:100A7000BB1FA617B70710F0A61BB70B881F991F3F
:100A80005A95A9F780959095BC01CD010895FB0179
:100A9000DC0104C08D910190801921F44150504037
:100AA000C8F7881B990B089501900D920020E1F77B
:100AB0000895FC0101900020E9F7809590958E0F34
:100AC0009F1F0895FB01DC014150504030F08D9193
:100AD0000190801919F40020B9F7881B990B08952B
:100AE000FB01DC014150504048F001900D92002084
:100AF000C9F701C01D9241505040E0F70895F894A5
:020B0000FFCF25
:100B02003137373200020031323341343536423721
:100B12003839432A3023440000546F6F206C6F6EC3
:100B22006720616E64206F7220756E6B6E6F772026
:100B3200636F6D6D616E646F200D0A004E45572024
:100B420050494E0053797374656D207374617274E9
:100B520061740D0A006F6E6C792064696769747341
:100B6200200D0A00546F206C6F6E672070696E2032
:100B72006D757374206265203420646967697473CB
:100B8200200D0A0050617373206B657920757070B7
:100B920064617465642021200D0A000D0A42757497
:100BA200746F6E20707265737365640D0A000D0AAE
:100BB200696E7075742066726571756E63652073F7
:100BC200746172746564200D0A000D0A5245535413
:100BD200494E470D0A000D0A41776961742073740A
:100BE2006172742066726571756E6365200D0A000C
:100BF200456E746572696E67204368616E67652031
:100C020070696E200D0A00556E6B6E6E6F772063F1
:100C12006F6D6D61646E6F200D0A000D0A436F7275
:100C2200726563742070696E0D0A000D0A496E7652
:100C3200616C69642070696E0D0A000D0A215449C5
:100C42004D45204F55542052454143484544210DBE
:100C52000A000D0A414343455353204752414E5423
:100C6200454420210D0A000D0A41434345535320B8
:100C720044454E49454420210D0A000D0A54494D70
:100C8200454F555420210D0A00636F7272656374DB
:100C9200206B6579200D0A00596F757220696E709C
:100CA2007574203A00546F206C6F6E6720636F6D0D
:060CB2006D616E646F002D
:00000001FF
