:100000000C9434000C9451000C9451000C94510049
:100010000C9451000C9451000C9451000C9451001C
:100020000C9451000C9451000C9451000C9451000C
:100030000C9451000C9451000C940E030C9451003C
:100040000C9451000C9451000C9451000C945100EC
:100050000C9451000C9451000C9451000C945100DC
:100060000C9451000C94510011241FBECFEFD8E026
:10007000DEBFCDBF11E0A0E0B1E0EEE3F7E002C0EB
:1000800005900D92AA3EB107D9F722E0AAEEB1E0A1
:1000900001C01D92A330B207E1F70E947A030C94CD
:1000A0009D030C9400008AB18C638AB98BB18C6378
:1000B0008BB984B1807F84B985B18F6085B908958B
:1000C00080E09BB19C639BB98230D9F08330D9F03A
:1000D0008130A9F05A982AE12A95F1F700C093B12E
:1000E000E92FE17090FF12C0199B10C01A9B0DC040
:1000F0001B9B17C08F5F843021F780E008955B98C9
:10010000EACF5C98E8CF5D98E6CFE2E024E0829FFA
:10011000C00111248A5F9E4FE80FF92FF11D8081E5
:100120000895E3E0F3CFCF930E946000C82F8111C0
:1001300004C0C0E08C2FCF9108952FEF89EF90E09D
:10014000215080409040E1F700C000000E94600014
:100150008C13EFCF0E946000811561F38FE19EE464
:100160000197F1F700C00000F5CF0C949300249A9A
:10017000259A2C9A2D980E9474026093EA0170933C
:10018000EB018093EC019093ED0108950E947402BD
:100190006093EE017093EF018093F0019093F10171
:1001A00085B190E2892785B90E9474022091EE0101
:1001B0003091EF014091F0015091F101621B730BFE
:1001C000840B950B643671058105910568F385B143
:1001D00090E2892785B908952D9A2C9808952D9835
:1001E0002C9808952C9A2D9808950E94740260937B
:1001F000EE017093EF018093F0019093F1018091F3
:10020000EE019091EF01A091F001B091F1014091C8
:10021000EA015091EB016091EC017091ED01841BBA
:10022000950BA60BB70B853F9140A105B10570F06A
:1002300085B190E1892785B90E9474026093EA0133
:100240007093EB018093EC019093ED0108952C9A4B
:100250002D9A0895811591F09091F801943070F4E1
:10026000E92FF0E0EC50FE4F80839F5F9093F80100
:100270000E94C60087E291E00E946D038091F80120
:10028000843051F464EF71E080E091E00E94250237
:1002900080930401909305018091040190910501E0
:1002A0000895CF9382E080930401109205010E948B
:1002B00074026093F9017093FA018093FB019093AB
:1002C000FC010E94B500C82F8A3261F48091F201CE
:1002D0008A3241F00E9430020E9404028AE391E0D7
:1002E0000E946D03C093F201CF91089523EF31E096
:1002F00042EF51E064EF71E088EF91E00E94350237
:10030000C0E0D1E00E9420028230910509F452C081
:1003100028F4892B71F40E94510107C083309105A4
:1003200009F463C0049709F465C0C11149C0C0E075
:10033000E9CF0E94F5000E94B5000E942A01809337
:10034000040190930501019739F486E591E00E943C
:100350006D030E941202E9CF38F486E691E00E9414
:100360006D030E941902E1CF0E9474022091F901ED
:100370003091FA014091FB015091FC01621B730B1B
:10038000840B950B693873418105910510F0D0936A
:10039000F3018091040190910501029731F680915B
:1003A000F301811511F286E791E00E946D030E942E
:1003B0000B02BBCF0E94EC008DE891E00E946D0320
:1003C00088EB9BE00E943103C1E0811509F49ACFCC
:1003D00023EF31E042EF51E064EF71E088EF91E00C
:1003E0000E9435020E94F200A2CF0E94EF0082EA32
:1003F00091E0E4CF0E94270186EB91E0DFCF1092DD
:10040000FE011092FD01089581E090E09093FE01BD
:100410008093FD01089584E090E09093FE01809325
:10042000FD01089582E090E09093FE018093FD012C
:10043000089583E090E09093FE018093FD0108957C
:100440008091FD019091FE01089544E050E00E94EA
:1004500090039C0181E090E0232B09F080E0089557
:100460000E94B5008111FCCF0895CF93DF93CDB7E3
:10047000DEB728970FB6F894DEBF0FBECDBF8983D5
:100480009A836B837C834D835E832F83388784ECD0
:1004900091E00E946D030E94300284E0EB81FC81B8
:1004A00011928A95E9F7E981FA811082EF81F88546
:1004B00010820E94FF0180ED91E00E946D03ED81AA
:1004C000FE81108228960FB6F894DEBF0FBECDBF16
:1004D000DF91CF91089582E084BD93E095BD809334
:1004E0006E0089EF87BD08952FB7F8946091FF01E2
:1004F0007091000280910102909102022FBF089535
:10050000E4E6F0E080818F7D8083EEE6808182608A
:1005100080830895EEE6F0E080818D7F8083E4E6BD
:1005200080818062808308958FB7F8941092FF01D4
:100530001092000210920102109202028FBF0895E1
:10054000EFB7F8942091FF01309100024091010231
:1005500050910202DC01CB01820F931FA41FB51F33
:100560008093FF0190930002A0930102B0930202D6
:10057000EFBF0895EF92FF920F931F93EFB7F89498
:100580002091FF013091000240910102509102023E
:1005900079018A01E61AF70A080B190BC701D8017D
:1005A0008093FF0190930002A0930102B093020296
:1005B000EFBF1F910F91FF90EF900895CF93DF93BE
:1005C000CDB7DEB728970FB6F894DEBF0FBECDBF0C
:1005D00069837A838B839C830E9474026D837E83FC
:1005E0008F8398870E9474022D813E814F815885A8
:1005F000621B730B840B950B29813A814B815C81C3
:10060000621773078407950768F328960FB6F89466
:10061000DEBF0FBECDBFDF91CF9108951F921FB6F1
:100620001F9211248F939F93AF93BF938091FF01EB
:1006300090910002A0910102B09102020196A11DC9
:10064000B11D8093FF0190930002A0930102B0932B
:100650000202BF91AF919F918F911F901FBE1F907B
:100660001895CF93DF9300D000D000D0CDB7DEB780
:100670008D839E830E94740269837A838B839C831B
:100680000E94740229813A814B815C81621B730B49
:10069000840B950B4D815E8164177507810591056B
:1006A00078F381E00F900F900F900F900F900F90C4
:1006B000DF91CF9108959093C5008093C40088E0A6
:1006C0008093C10086E08093C20008959091C0009D
:1006D00095FFFCCF8093C6000895CF93DF93EC0184
:1006E0008881811103C0DF91CF91089521960E94E6
:1006F0006603F6CF0E94530087E690E00E945B03FA
:100700000E946B020E94B70086E191E00E946D0397
:100710000E94FF0178940E94760180E090E00895A5
:10072000FB01DC0104C08D910190801921F441503E
:0E0730005040C8F7881B990B0895F894FFCF2E
:10073E0031373732020031323341343536423738B1
:10074E0039432A30234453797374656D2073746171
:10075E00727461740D0A000D0A427574746F6E2006
:10076E00707265737365640D0A000D0A696E70759B
:10077E00742066726571756E636520737461727430
:10078E006564200D0A000D0A436F72726563742052
:10079E0070696E0D0A000D0A496E76616C696420EF
:1007AE0070696E0D0A000D0A2154494D45204F55B2
:1007BE00542052454143484544210D0A000D0A413B
:1007CE004343455353204752414E54454420210D37
:1007DE000A000D0A4143434553532044454E4945B3
:1007EE004420210D0A000D0A54494D454F55542001
:1007FE00210D0A000D0A52455354494E470D0A0069
:10080E000D0A417769617420737461727420667287
:0A081E006571756E6365200D0A0018
:00000001FF
