:100000000C9434000C9451000C9451000C94510049
:100010000C9451000C9451000C9451000C9451001C
:100020000C9451000C9451000C9451000C9451000C
:100030000C9451000C9451000C9408040C94510041
:100040000C9451000C9451000C9468040C945100D1
:100050000C9451000C9451000C9451000C945100DC
:100060000C9451000C94510011241FBECFEFD8E026
:10007000DEBFCDBF12E0A0E0B1E0EEE9FAE002C0E1
:1000800005900D92AC34B107D9F722E0ACE4B2E0B0
:1000900001C01D92A938B207E1F70E9405050C9432
:1000A0004D050C9400008F929F92AF92BF92DF9209
:1000B000EF92FF920F931F93CF93DF93EC018B018D
:1000C0005C0181E0E82EF12CD12C4B0180E1880EFF
:1000D000911CF5018081811509F453C09FEFA91A85
:1000E000B90AF5018C32D9F41292D801D11421F059
:1000F000E1E0DE1204C01896FE010E943A05D39496
:10010000E501C7010E94C1048FE791E00E94B40499
:100110008E2D883098F48FEFE81AF80ADACF8081B4
:100120008111EFCFF2E0DF12ECCFD401FE010E948B
:100130003A05E7CF9FEFE91AF90ACBCFD11469F05E
:100140008131C0F381E0D81641F0EFEFEE1AFE0ADC
:10015000F6E1EF16F10409F0BCCF87E191E00E94CF
:10016000B40481E891E0D801FC010E943A05D8016D
:100170001896FC010E943A05D8015096FC010E9495
:100180003A05DF91CF911F910F91FF90EF90DF9093
:10019000BF90AF909F908F90089545E050E06AE344
:1001A00071E00E943F059C0181E0232B09F080E073
:1001B00008958AB18C638AB98BB18C638BB984B191
:1001C000807F84B985B18F6085B9089580E09BB147
:1001D0009C639BB98230D9F08330D9F08130A9F08B
:1001E0005A982AE12A95F1F700C093B1E92FE170FE
:1001F00090FF12C0199B10C01A9B0DC01B9B17C00B
:100200008F5F843021F780E008955B98EACF5C9897
:10021000E8CF5D98E6CFE2E024E0829FC0011124A0
:10022000895F9E4FE80FF92FF11D80810895E3E06B
:10023000F3CFCF930E94E600C82F811104C0C0E025
:100240008C2FCF9108952FEF89EF90E021508040BF
:100250009040E1F700C000000E94E6008C13EFCF51
:100260000E94E600811561F38FE19EE40197F1F7AA
:1002700000C00000F5CF0E94E600811521F09091AA
:100280004D02981305C090E080934D02892F089588
:10029000982FFACF249A259A2C9A2D980E946E03B3
:1002A00060934E0270934F028093500290935102DC
:1002B00008950E946E0360935202709353028093DC
:1002C00054029093550285B190E2892785B90E9426
:1002D0006E0320915202309153024091540250918A
:1002E0005502621B730B840B950B643671058105F7
:1002F000910568F385B190E2892785B908952D9A13
:100300002C9808952D982C9808952C9A2D9808953E
:100310000E946E03609352027093530280935402C2
:10032000909355028091520290915302A0915402F1
:10033000B091550240914E0250914F02609150028F
:1003400070915102841B950BA60BB70B853F914012
:10035000A105B10570F085B190E1892785B90E94AA
:100360006E0360934E0270934F02809350029093FD
:10037000510208952C9A2D9A0895811591F090912B
:100380005B02943070F4E92FF0E0E95AFD4F80836E
:100390009F5F90935B020E94590183E591E00E9468
:1003A000B40480915B02843051F467E572E080E030
:1003B00091E00E94280380930501909306018091AB
:1003C000050190910601089582E080930501109245
:1003D00006010E946E0360935C0270935D0280933D
:1003E0005E0290935F020E943B018A3241F40E94B8
:1003F00033030E94AD0286E691E00C94B4040895A4
:10040000CF93DF93CDB7DEB7AB970FB6F894DEBFCF
:100410000FBECDBF46E552E067E572E08BE592E0A6
:100420000E94380301E010E00E94D0028230910562
:1004300009F46BC0F0F4892B39F50E94E40163E103
:1004400070E0CE0149960E94D502811539F0BE01B7
:100450006F5F7F4FCE0149960E945300CE010196F7
:100460000E94CD00811561F082E891E00E94B40401
:1004700007C08330910509F461C0049709F463C093
:10048000111149C010E0D0CF0E9488010E943B01A9
:100490000E94BD018093050190930601019739F4F4
:1004A00089E991E00E94B4040E94BB02E9CF38F4CC
:1004B00089EA91E00E94B4040E94C202E1CF0E9446
:1004C0006E0320915C0230915D0240915E0250917A
:1004D0005F02621B730B840B950B693873418105B6
:1004E000910510F00093560280910501909106014C
:1004F000029731F680915602811511F289EB91E055
:100500000E94B4040E94B402BBCF0E947F0180ED20
:1005100091E00E94B40488EB9BE00E942B0411E060
:10052000811509F481CF46E552E067E572E08BE57D
:1005300092E00E9438030E948501A4CF0E948201AC
:1005400085EE91E0E6CF0E94BA0189EF91E0E1CF1C
:100550001092610210926002089581E090E0909301
:10056000610280936002089584E090E090936102BC
:1005700080936002089582E090E0909361028093FE
:100580006002089583E090E090936102809360029E
:10059000089585E090E09093610280936002089551
:1005A00080916002909161020895CF93DF9300D013
:1005B00000D0CDB7DEB78B839C8369837A830E949A
:1005C0008B04811581F10E9494049091620229812B
:1005D0003A81215031099217130668F58D3011F0D8
:1005E0008A30B9F4911599F0EB81FC81E90FF11D86
:1005F000108287E092E00E94B4048B819C810E946B
:10060000B4048FE791E00E94B4041092620281E08A
:100610000BC021E0290F209362022B813C81290F1E
:10062000311DF901808380E00F900F900F900F90A3
:10063000DF91CF9108952B813C81290F311DF90164
:1006400010821092620284E192E00E94B404EBCF27
:1006500044E050E00E942D059C0181E090E0232BB6
:1006600009F080E008950E943B018111FCCF0895BC
:10067000CF93DF9300D000D000D0CDB7DEB7898311
:100680009A836B837C834D835E8385E292E00E9434
:10069000B4040E94330384E0EB81FC8111928A95BB
:1006A000E9F7E981FA811082ED81FE8110820E94D2
:1006B000A80281E392E00F900F900F900F900F909F
:1006C0000F90DF91CF910C94B40482E084BD93E04D
:1006D00095BD80936E0089EF87BD08952FB7F8947C
:1006E000609163027091640280916502909166024C
:1006F0002FBF0895E4E6F0E080818F7D8083EEE6F1
:100700008081826080830895EEE6F0E080818D7FB5
:100710008083E4E680818062808308958FB7F894B7
:1007200010926302109264021092650210926602A7
:100730008FBF0895EFB7F89420916302309164025F
:100740004091650250916602DC01CB01820F931F3C
:10075000A41FB51F8093630290936402A093650267
:10076000B0936602EFBF0895EF92FF920F931F932D
:10077000EFB7F894209163023091640240916502D2
:100780005091660279018A01E61AF70A080B190BE3
:10079000C701D8018093630290936402A09365021D
:1007A000B0936602EFBF1F910F91FF90EF900895F5
:1007B000CF93DF93CDB7DEB728970FB6F894DEBF9F
:1007C0000FBECDBF69837A838B839C830E946E03A7
:1007D0006D837E838F8398870E946E032D813E8177
:1007E0004F815885621B730B840B950B29813A81CD
:1007F0004B815C81621773078407950768F328961D
:100800000FB6F894DEBF0FBECDBFDF91CF91089534
:100810001F921FB61F9211248F939F93AF93BF9384
:100820008091630290916402A0916502B09166028A
:100830000196A11DB11D8093630290936402A09361
:100840006502B0936602BF91AF919F918F911F9007
:100850001FBE1F901895CF93DF9300D000D000D01B
:10086000CDB7DEB78D839E830E946E0369837A8342
:100870008B839C830E946E0329813A814B815C812A
:10088000621B730B840B950B4D815E81641775079A
:100890008105910578F381E00F900F900F900F90F4
:1008A0000F900F90DF91CF9108951092C50087E6C9
:1008B0008093C40086E08093C20088E98093C100E1
:1008C00008959091C00095FFFCCF8093C6000895D5
:1008D0002F932FB72F933F938F939F93EF93FF9374
:1008E0002091C6008091680201968F713091670255
:1008F000381741F0E0916802F0E0E759FD4F20839E
:1009000080936802FF91EF919F918F913F912F917A
:100910002FBF2F911895209168029091670281E076
:10092000291301C080E008959FB7F89420916802D0
:1009300080916702281779F0E0916702F0E0E759AB
:10094000FD4F8081209167022F5F3F4F2F712093D1
:1009500067029FBF089580E0FCCF9091C00095FF93
:10096000FCCF8093C6000895CF93DF93EC0188817C
:10097000811103C0DF91CF91089521960E94AD04AB
:10098000F6CFFF920F931F93CF93DF9300D000D049
:1009900000D0CDB7DEB79C01892B71F480E30F90B6
:1009A0000F900F900F900F900F90DF91CF911F91AC
:1009B0000F91FF900C946104FE013196F12C8F0190
:1009C000C9016AE070E00E941905F394805D80839C
:1009D0002A30310528F031969B0185E0F812F0CFDE
:1009E000FA94F801EF0DF11D80810E946104F1106D
:1009F000F7CF0F900F900F900F900F900F90DF9107
:100A0000CF911F910F91FF9008950E94D9000E94ED
:100A100055040E9465030E944A0182E491E00E940D
:100A2000B4040E94A80278940E94000280E090E042
:100A30000895AA1BBB1B51E107C0AA1FBB1FA61725
:100A4000B70710F0A61BB70B881F991F5A95A9F777
:100A500080959095BC01CD010895FB01DC0104C097
:100A60008D910190801921F441505040C8F7881BA6
:100A7000990B089501900D920020E1F70895FB0174
:100A8000DC014150504030F08D910190801919F4F3
:0E0A90000020B9F7881B990B0895F894FFCF4A
:100A9E003137373200020031323341343536423786
:100AAE003839432A302344546F6F206C6F6E6720A1
:100ABE00616E64206F7220756E6B6E6F7720636F40
:100ACE006D6D616E646F200D0A004E4557205049C2
:100ADE004E0053797374656D207374617274617412
:100AEE000D0A000D0A427574746F6E207072657374
:100AFE007365640D0A000D0A696E70757420667256
:100B0E006571756E63652073746172746564200D12
:100B1E000A00456E746572696E67204368616E6780
:100B2E00652070696E200D0A000D0A436F727265A2
:100B3E0063742070696E0D0A000D0A496E76616C41
:100B4E0069642070696E0D0A000D0A2154494D45E5
:100B5E00204F55542052454143484544210D0A002B
:100B6E000D0A414343455353204752414E54454489
:100B7E0020210D0A000D0A4143434553532044459D
:100B8E004E49454420210D0A000D0A54494D454F4A
:100B9E00555420210D0A00596F757220696E7075BB
:100BAE0074203A00546F206C6F6E6720636F6D6D0A
:100BBE00616E646F000D0A52455354494E470D0A3B
:100BCE00000D0A4177696174207374617274206636
:0C0BDE00726571756E6365200D0A0000E1
:00000001FF
