:100000000C9434000C9451000C9451000C94510049
:100010000C9451000C9451000C9451000C9451001C
:100020000C9451000C9451000C9451000C9451000C
:100030000C9451000C9451000C941B040C9451002E
:100040000C9451000C9451000C947B040C945100BE
:100050000C9451000C9451000C9451000C945100DC
:100060000C9451000C94510011241FBECFEFD8E026
:10007000DEBFCDBF12E0A0E0B1E0ECEFFAE002C0DD
:1000800005900D92A63BB107D9F723E0A6EBB2E0AD
:1000900001C01D92A432B207E1F70E9418050C942A
:1000A0007C050C940000CF93DF93EB01AC0120E0C2
:1000B00030E0605F7F4FDA01EC91E11579F14F5F3D
:1000C0005F4FEC3271F5FA011292DE01213010F02F
:1000D00021F41896FC010E9451052F5FCA013F5F71
:1000E000383048F3211531F0313128F3213011F047
:1000F000353109F784E191E00E94C7048AE991E073
:10010000DE01FC010E945105DE011896FC010E94EF
:100110005105DE015096FC010E945105DF91CF91FF
:100120000895DA01EC91E111DACF2230C1F6DB015A
:10013000FC010E945105D3CF45E050E067E371E038
:100140000E945F059C0181E0232B09F080E0089567
:100150008AB18C638AB98BB18C638BB984B1807F8F
:1001600084B985B18F6085B9089580E09BB19C63A7
:100170009BB98230D9F08330D9F08130A9F05A98F8
:100180002AE12A95F1F700C093B1E92FE17090FFC1
:1001900012C0199B10C01A9B0DC01B9B17C08F5F0C
:1001A000843021F780E008955B98EACF5C98E8CF2F
:1001B0005D98E6CFE2E024E0829FC00111248E5FCB
:1001C0009E4FE80FF92FF11D80810895E3E0F3CFF2
:1001D000CF930E94B500C82F811104C0C0E08C2FBE
:1001E000CF9108952FEF89EF90E02150804090400B
:1001F000E1F700C000000E94B5008C13EFCF0E9411
:10020000B500811561F38FE19EE40197F1F700C01D
:100210000000F5CF0E94B500811521F09091B70242
:10022000981305C090E08093B702892F0895982F06
:10023000FACF0E940A018111FCCF0895249A259AD1
:100240002C9A2D980E9481036093B8027093B90292
:100250008093BA029093BB0208950E948103609339
:10026000BC027093BD028093BE029093BF0285B121
:1002700090E2892785B90E9481032091BC023091C8
:10028000BD024091BE025091BF02621B730B840BF2
:10029000950B643671058105910568F385B190E28F
:1002A000892785B908952D9A2C9808952D982C9812
:1002B00008952C9A2D9808950E9481036093BC02A2
:1002C0007093BD028093BE029093BF028091BC02E6
:1002D0009091BD02A091BE02B091BF024091B802C0
:1002E0005091B9026091BA027091BB02841B950BC8
:1002F000A60BB70B853F9140A105B10570F085B104
:1003000090E1892785B90E9481036093B8027093B8
:10031000B9028093BA029093BB0208952C9A2D9A49
:100320000895A0ECB2E0FC010E9451050895382F19
:10033000292FA82FB92F40E050E0832F922F0E9441
:1003400056054817590748F0832F922F0E945605EB
:10035000049789F084E691E006C08C9180538A303E
:1003600030F085E591E00E94C70480E00895119681
:100370004F5F5F4FE2CF84E891E00E94C70481E0C5
:10038000089544E050E0BC0180EC92E00C946D05CF
:1003900044E050E060EC72E00E9444059C0181E082
:1003A000232B09F080E00895811591F09091F602D9
:1003B000943070F4E92FF0E0EF50FD4F80839F5FA1
:1003C0009093F6020E942D018BE991E00E94C704F0
:1003D0008091F602843051F41092F50281EF92E0A0
:1003E0000E94C801809300011092010180910001D8
:1003F00090910101089582E0809300011092010123
:100400000E9481036093F7027093F8028093F902CF
:100410009093FA020E940A018A3241F40E94190163
:100420000E94FD028EEA91E00C94C70408958AECC4
:1004300091E00E94C7040E941901E1EFF2E084E01C
:10044000DF011D928A95E9F71092F6021092F002F0
:1004500082E191E0A8EDB2E0FC010E945105A0EE1E
:10046000B2E0FC010E945105A8EEB2E0FC010E943E
:100470005105A5ECB2E0FC010E9451050E94F80272
:1004800086ED91E00C94C7040E941702C0E0D1E011
:100490000E9420038330910509F489C0C0F48130A3
:1004A000910509F441C00297E9F40E94530182E5E5
:1004B00092E00E94C70488EB9BE00E943E04C1E0EA
:1004C000811531F30E9417020E94590109C084303E
:1004D000910509F471C0059709F473C0C111EBCF00
:1004E000C0E0D6CF0E94FB0163E170E085EC92E0B2
:1004F0000E942503811591F368ED72E085EC92E08E
:100500000E94530088ED92E00E949C00811539F012
:1005100080EF91E00E94C7040E941903DFCF87E0BB
:1005200092E00E94C704DACF0E945C010E940A0197
:100530000E94D4018093000190930101019739F446
:100540008BE192E00E94C7040E940B03C7CF38F4EE
:100550008BE292E00E94C7040E941203BFCF0E9468
:1005600081032091F7023091F8024091F9025091F5
:10057000FA02621B730B840B950B6938734181057A
:10058000910510F0D093F00280910001909101014B
:10059000029709F0A3CF8091F002811509F49ECF54
:1005A0008BE392E00E94C7040E94040397CF0E944D
:1005B000560187E692E07DCF0E948E018BE792E0A4
:1005C00078CF80EE92E00E94C801813009F073CFAD
:1005D00089E892E00E94C70488EE92E00E949701A9
:1005E000811509F468CF88EE92E00E94C10163CFC3
:1005F0001092FC021092FB02089581E090E090932B
:10060000FC028093FB02089584E090E09093FC024A
:100610008093FB02089582E090E09093FC02809327
:10062000FB02089583E090E09093FC028093FB022C
:10063000089585E090E09093FC028093FB0208957A
:100640008091FB029091FC020895CF93DF9300D03C
:1006500000D0CDB7DEB78B839C8369837A830E94F9
:100660009E04811581F10E94A7049091FD022981C9
:100670003A81215031099217130668F58D3011F037
:100680008A30B9F4911599F0EB81FC81E90FF11DE5
:10069000108288E992E00E94C7048B819C810E94AD
:1006A000C70488E991E00E94C7041092FD0281E02E
:1006B0000BC021E0290F2093FD022B813C81290FE3
:1006C000311DF901808380E00F900F900F900F9003
:1006D000DF91CF9108952B813C81290F311DF901C4
:1006E00010821092FD0285EA92E00E94C704EBCFCF
:1006F00082E084BD93E095BD80936E0089EF87BD55
:1007000008952FB7F8946091FE027091FF028091D6
:100710000003909101032FBF0895E4E6F0E080818B
:100720008F7D8083EEE68081826080830895EEE68F
:10073000F0E080818D7F8083E4E680818062808329
:1007400008958FB7F8941092FE021092FF02109253
:100750000003109201038FBF0895EFB7F894209122
:10076000FE023091FF024091000350910103DC0131
:10077000CB01820F931FA41FB51F8093FE0290939D
:10078000FF02A0930003B0930103EFBF0895EF921F
:10079000FF920F931F93EFB7F8942091FE023091D0
:1007A000FF02409100035091010379018A01E61A8A
:1007B000F70A080B190BC701D8018093FE0290932A
:1007C000FF02A0930003B0930103EFBF1F910F91AD
:1007D000FF90EF900895CF93DF93CDB7DEB72897C2
:1007E0000FB6F894DEBF0FBECDBF69837A838B83CB
:1007F0009C830E9481036D837E838F8398870E94F0
:1008000081032D813E814F815885621B730B840BC0
:10081000950B29813A814B815C81621773078407AC
:10082000950768F328960FB6F894DEBF0FBECDBFCC
:10083000DF91CF9108951F921FB61F9211248F93BD
:100840009F93AF93BF938091FE029091FF02A0917E
:100850000003B09101030196A11DB11D8093FE021A
:100860009093FF02A0930003B0930103BF91AF9157
:100870009F918F911F901FBE1F901895CF93DF936C
:1008800000D000D000D0CDB7DEB78D839E830E940C
:10089000810369837A838B839C830E9481032981EE
:1008A0003A814B815C81621B730B840B950B4D81EC
:1008B0005E81641775078105910578F381E00F90DB
:1008C0000F900F900F900F900F90DF91CF910895A0
:1008D0001092C50087E68093C40086E08093C20032
:1008E00088E98093C10008959091C00095FFFCCFE6
:1008F0008093C60008952F932FB72F933F938F9324
:100900009F93EF93FF932091C6008091030301967C
:100910008F7130910203381741F0E0910303F0E04A
:10092000EC5FFC4F208380930303FF91EF919F9135
:100930008F913F912F912FBF2F91189520910303F5
:100940009091020381E0291301C080E008959FB7D0
:10095000F8942091030380910203281779F0E09125
:100960000203F0E0EC5FFC4F8081209102032F5FD7
:100970003F4F2F71209302039FBF089580E0FCCF6B
:100980009091C00095FFFCCF8093C6000895CF934F
:10099000DF93EC018881811103C0DF91CF9108952D
:1009A00021960E94C004F6CFFF920F931F93CF931E
:1009B000DF9300D000D000D0CDB7DEB79C01892BEB
:1009C00071F480E30F900F900F900F900F900F90A5
:1009D000DF91CF911F910F91FF900C947404FE0151
:1009E0003196F12C8F01C9016AE070E00E94300558
:1009F000F394805D80832A30310528F031969B0185
:100A000085E0F812F0CFFA94F801EF0DF11D808126
:100A10000E947404F110F7CF0F900F900F900F9079
:100A20000F900F90DF91CF911F910F91FF9008953C
:100A30000E94A8000E9468040E9478030E941E0180
:100A40008FE391E00E94C7040E94F802789480E549
:100A500091E00E9491010E94440280E090E008959C
:100A6000AA1BBB1B51E107C0AA1FBB1FA617B707D4
:100A700010F0A61BB70B881F991F5A95A9F78095F0
:100A80009095BC01CD010895FB01DC0104C08D915E
:100A90000190801921F441505040C8F7881B990BF0
:100AA000089501900D920020E1F70895FC01019056
:100AB0000020E9F7809590958E0F9F1F0895FB0108
:100AC000DC014150504030F08D910190801919F4B3
:100AD0000020B9F7881B990B0895FB01DC014150F8
:100AE000504048F001900D920020C9F701C01D92BE
:0C0AF00041505040E0F70895F894FFCF0B
:100AFC0002003132334134353642373839432A30EB
:100B0C0023440000546F6F206C6F6E6720616E641D
:100B1C00206F7220756E6B6E6F7720636F6D6D61D9
:100B2C006E646F200D0A004E45572050494E0053FD
:100B3C00797374656D20737461727461740D0A003D
:100B4C0031373732006F6E6C792064696769747362
:100B5C00200D0A00546F206C6F6E672070696E2038
:100B6C006D757374206265203420646967697473D1
:100B7C00200D0A0050617373206B657920757070BD
:100B8C0064617465642021200D0A000D0A4275749D
:100B9C00746F6E20707265737365640D0A000D0AB4
:100BAC00696E7075742066726571756E63652073FD
:100BBC00746172746564200D0A000D0A5245535419
:100BCC00494E470D0A000D0A417769617420737410
:100BDC006172742066726571756E6365200D0A0012
:100BEC00456E746572696E67204368616E67652037
:100BFC0070696E200D0A00556E6B6E6E6F772063F8
:100C0C006F6D6D61646E6F200D0A000D0A436F727B
:100C1C00726563742070696E0D0A000D0A496E7658
:100C2C00616C69642070696E0D0A000D0A215449CB
:100C3C004D45204F55542052454143484544210DC4
:100C4C000A000D0A414343455353204752414E5429
:100C5C00454420210D0A000D0A41434345535320BE
:100C6C0044454E49454420210D0A000D0A54494D76
:100C7C00454F555420210D0A00636F7272656374E1
:100C8C00206B6579200D0A00596F757220696E70A2
:100C9C007574203A00546F206C6F6E6720636F6D13
:060CAC006D616E646F0033
:00000001FF
