:100000000C9434000C9451000C9451000C94510049
:100010000C9451000C9451000C9451000C9451001C
:100020000C9451000C9451000C9451000C9451000C
:100030000C9451000C9451000C94BB030C9451008F
:100040000C9451000C9451000C941B040C9451001E
:100050000C9451000C9451000C9451000C945100DC
:100060000C9451000C94510011241FBECFEFD8E026
:10007000DEBFCDBF12E0A0E0B1E0EEE2F9E002C0E9
:1000800005900D92AE32B107D9F722E0AEE2B2E0B0
:1000900001C01D92AB36B207E1F70E9474040C94C4
:1000A00095040C940000EF92FF920F931F93CF934F
:1000B000DF93FC0120E0C0E0D0E08E0178013081C8
:1000C000311128C087E191E00E946704C7010E94B6
:1000D000670483E291E00E94670486E291E00E9457
:1000E0006704C8010E94670483E291E00E946704EC
:1000F00081E391E00E9467048D2F9C2F0E9467048A
:1001000083E291E0DF91CF911F910F91FF90EF90EB
:100110000C94670431963C3259F4DF011E92213071
:1001200018F019F48C0101C07C012F5FCF01C7CFFB
:1001300030813111C4CF223011F6D82FC92FBFCF53
:100140008AB18C638AB98BB18C638BB984B1807F9F
:1001500084B985B18F6085B9089580E09BB19C63B7
:100160009BB98230D9F08330D9F08130A9F05A9808
:100170002AE12A95F1F700C093B1E92FE17090FFD1
:1001800012C0199B10C01A9B0DC01B9B17C08F5F1C
:10019000843021F780E008955B98EACF5C98E8CF3F
:1001A0005D98E6CFE2E024E0829FC0011124895FE0
:1001B0009E4FE80FF92FF11D80810895E3E0F3CF02
:1001C000CF930E94AD00C82F811104C0C0E08C2FD6
:1001D000CF9108952FEF89EF90E02150804090401B
:1001E000E1F700C000000E94AD008C13EFCF0E9429
:1001F000AD00811561F38FE19EE40197F1F700C036
:100200000000F5CF0E94AD00811521F090912F02E2
:10021000981305C090E080932F02892F0895982F9E
:10022000FACF249A259A2C9A2D980E942103609344
:10023000300270933102809332029093330208951A
:100240000E9421036093340270933502809336023A
:100250009093370285B190E2892785B90E942103E6
:10026000209134023091350240913602509137028C
:10027000621B730B840B950B643671058105910528
:1002800068F385B190E2892785B908952D9A2C9855
:1002900008952D982C9808952C9A2D9808950E94D1
:1002A0002103609334027093350280933602909359
:1002B00037028091340290913502A0913602B091BC
:1002C00037024091300250913102609132027091B8
:1002D0003302841B950BA60BB70B853F9140A105FC
:1002E000B10570F085B190E1892785B90E9421039D
:1002F0006093300270933102809332029093330204
:1003000008952C9A2D9A0895811591F090913D02AF
:10031000943070F4E92FF0E0E75CFD4F80839F5F3D
:1003200090933D020E9420018DE491E00E946704B9
:1003300080913D02843051F469E372E080E091E005
:100340000E94DB02809305019093060180910501D4
:1003500090910601089582E08093050110920601B4
:100360000E94210360933E0270933F0280934002FB
:10037000909341020E9402018A3241F40E94E602F7
:100380000E94670280E691E00C9467040895CF9381
:10039000DF93CDB7DEB763970FB6F894DEBF0FBE1D
:1003A000CDBF48E352E069E372E08DE392E00E9442
:1003B000EB0201E010E00E9483028230910509F413
:1003C0005EC088F4892BD1F40E94AB0163E170E038
:1003D000CE0101960E948802811561F0CE0101963E
:1003E0000E94530007C08330910509F461C004974F
:1003F00009F463C0111149C010E0DDCF0E944F0124
:100400000E9402010E9484018093050190930601DD
:10041000019739F48CE791E00E9467040E9475020D
:10042000E9CF38F48CE891E00E9467040E947C02D6
:10043000E1CF0E94210320913E0230913F02409182
:10044000400250914102621B730B840B950B69387B
:1004500073418105910510F00093380280910501E8
:1004600090910601029731F680913802811511F2C0
:100470008CE991E00E9467040E946E02BBCF0E944B
:10048000460183EB91E00E94670488EB9BE00E94A9
:10049000DE0311E0811509F48ECF48E352E069E3F1
:1004A00072E08DE392E00E94EB020E944C01A4CF27
:1004B0000E94490188EC91E0E6CF0E9481018CED19
:1004C00091E0E1CF1092430210924202089581E040
:1004D00090E09093430280934202089584E090E07C
:1004E0009093430280934202089582E090E09093BB
:1004F000430280934202089583E090E09093430288
:10050000809342020895809142029091430208959F
:10051000CF93DF9300D000D0CDB7DEB78B839C8321
:1005200069837A830E943E04811581F10E94470409
:100530009091440229813A81215031099217130682
:1005400068F58D3011F08A30B9F4911599F0EB818E
:10055000FC81E90FF11D10828AEE91E00E94670490
:100560008B819C810E94670489E791E00E94670467
:100570001092440281E00BC021E0290F2093440235
:100580002B813C81290F311DF901808380E00F9080
:100590000F900F900F90DF91CF9108952B813C81A8
:1005A000290F311DF90110821092440287EF91E06A
:1005B0000E946704EBCF44E050E00E9488049C0155
:1005C00081E090E0232B09F080E008950E94020171
:1005D0008111FCCF0895CF93DF9300D000D000D0DD
:1005E000CDB7DEB789839A836B837C834D835E832B
:1005F00088E092E00E9467040E94E60284E0EB81BA
:10060000FC8111928A95E9F7E981FA811082ED81E6
:10061000FE8110820E94620284E192E00F900F90AE
:100620000F900F900F900F90DF91CF910C94670473
:1006300082E084BD93E095BD80936E0089EF87BD15
:1006400008952FB7F8946091450270914602809109
:100650004702909148022FBF0895E4E6F0E08081C0
:100660008F7D8083EEE68081826080830895EEE650
:10067000F0E080818D7F8083E4E6808180628083EA
:1006800008958FB7F8941092450210924602109286
:100690004702109248028FBF0895EFB7F894209157
:1006A0004502309146024091470250914802DC01D8
:1006B000CB01820F931FA41FB51F80934502909317
:1006C0004602A0934702B0934802EFBF0895EF920D
:1006D000FF920F931F93EFB7F8942091450230914A
:1006E0004602409147025091480279018A01E61A78
:1006F000F70A080B190BC701D801809345029093A4
:100700004602A0934702B0934802EFBF1F910F919A
:10071000FF90EF900895CF93DF93CDB7DEB7289782
:100720000FB6F894DEBF0FBECDBF69837A838B838B
:100730009C830E9421036D837E838F8398870E9410
:1007400021032D813E814F815885621B730B840BE1
:10075000950B29813A814B815C816217730784076D
:10076000950768F328960FB6F894DEBF0FBECDBF8D
:10077000DF91CF9108951F921FB61F9211248F937E
:100780009F93AF93BF938091450290914602A091B1
:100790004702B09148020196A11DB11D8093450208
:1007A00090934602A0934702B0934802BF91AF9145
:1007B0009F918F911F901FBE1F901895CF93DF932D
:1007C00000D000D000D0CDB7DEB78D839E830E94CD
:1007D000210369837A838B839C830E94210329816F
:1007E0003A814B815C81621B730B840B950B4D81AD
:1007F0005E81641775078105910578F381E00F909C
:100800000F900F900F900F900F90DF91CF91089560
:100810001092C50087E68093C40086E08093C200F2
:1008200088E98093C10008959091C00095FFFCCFA6
:100830008093C60008952F932FB72F933F938F93E4
:100840009F93EF93FF932091C60080914A020196F7
:100850008F7130914902381741F0E0914A02F0E07F
:10086000E55BFD4F208380934A02FF91EF919F91BA
:100870008F913F912F912FBF2F91189520914A0270
:100880009091490281E0291301C080E008959FB74B
:10089000F89420914A0280914902281779F0E0915A
:1008A0004902F0E0E55BFD4F8081209149022F5F16
:1008B0003F4F2F71209349029FBF089580E0FCCFE6
:1008C0009091C00095FFFCCF8093C6000895CF9310
:1008D000DF93EC018881811103C0DF91CF910895EE
:1008E00021960E946004F6CF0E94A0000E94080496
:1008F0000E9418030E9411018CE391E00E9467049A
:100900000E94620278940E94C70180E090E00895FE
:10091000FB01DC0104C08D910190801921F441504C
:0E0920005040C8F7881B990B0895F894FFCF3C
:10092E0031373732000200313233413435364237F7
:10093E003839432A30234450726F746F636F6C20C2
:10094E003A20000A0D004F6C642070696E203A2028
:10095E00004E65772070696E203A200053797374CB
:10096E00656D20737461727461740D0A000D0A4214
:10097E007574746F6E20707265737365640D0A0002
:10098E000D0A696E7075742066726571756E636599
:10099E002073746172746564200D0A000D0A436F32
:1009AE0072726563742070696E0D0A000D0A496ECD
:1009BE0076616C69642070696E0D0A000D0A21540F
:1009CE00494D45204F5554205245414348454421F9
:1009DE000D0A000D0A414343455353204752414EE1
:1009EE0054454420210D0A000D0A414343455353FB
:1009FE002044454E49454420210D0A000D0A544914
:100A0E004D454F555420210D0A00596F75722069BE
:100A1E006E707574203A00546F206C6F6E67206391
:100A2E006F6D6D616E646F000D0A52455354494EE1
:100A3E00470D0A000D0A4177696174207374617263
:0E0A4E00742066726571756E6365200D0A0076
:00000001FF
