:100000000C9434000C9451000C9451000C94510049
:100010000C9451000C9451000C9451000C9451001C
:100020000C9451000C9451000C9451000C9451000C
:100030000C9451000C9451000C942B040C9451001E
:100040000C9451000C9451000C948B040C945100AE
:100050000C9451000C9451000C9451000C945100DC
:100060000C9451000C94510011241FBECFEFD8E026
:10007000DEBFCDBF12E0A0E0B1E0ECE1FBE002C0EA
:1000800005900D92A03DB107D9F723E0A0EDB2E0B5
:1000900001C01D92AE33B207E1F70E9428050C940F
:1000A0008C050C9400008AB18C638AB98BB18C6387
:1000B0008BB984B1807F84B985B18F6085B908958B
:1000C00080E09BB19C639BB98230D9F08330D9F03A
:1000D0008130A9F05A982AE12A95F1F700C093B12E
:1000E000E92FE17090FF12C0199B10C01A9B0DC040
:1000F0001B9B17C08F5F843021F780E008955B98C9
:10010000EACF5C98E8CF5D98E6CFE2E024E0829FFA
:10011000C00111248E5F9E4FE80FF92FF11D8081E1
:100120000895E3E0F3CFCF930E946000C82F8111C0
:1001300004C0C0E08C2FCF9108952FEF89EF90E09D
:10014000215080409040E1F700C000000E94600014
:100150008C13EFCF0E946000811561F38FE19EE464
:100160000197F1F700C00000F5CF0E9460008115F3
:1001700021F09091D002981305C090E08093D002B6
:10018000892F0895982FFACF0E94B5008111FCCFD6
:100190000895249A259A2C9A2D980E949103609391
:1001A000D1027093D2028093D3029093D402089527
:1001B0000E9491036093D5027093D6028093D70278
:1001C0009093D80285B190E2892785B90E94910366
:1001D0002091D5023091D6024091D7025091D80299
:1001E000621B730B840B950B6436710581059105B9
:1001F00068F385B190E2892785B908952D9A2C98E6
:1002000008952D982C9808952C9A2D9808950E9461
:1002100091036093D5027093D6028093D702909396
:10022000D8028091D5029091D602A091D702B091C8
:10023000D8024091D1025091D2026091D3027091C4
:10024000D402841B950BA60BB70B853F9140A105EB
:10025000B10570F085B190E1892785B90E949103BD
:100260006093D1027093D2028093D3029093D40210
:1002700008952C9A2D9A0895A9EDB2E0FC010E94F0
:1002800061050895382F292FA82FB92F40E050E09D
:10029000832F922F0E9466054817590748F0832F35
:1002A000922F0E946605049789F089E391E006C0C9
:1002B0008C9180538A3030F08AE291E00E94D7041A
:1002C00080E0089511964F5F5F4FE2CF89E591E09E
:1002D0000E94D70481E0089544E050E0BC0189ED1C
:1002E00092E00C947D0544E050E069ED72E00E94DC
:1002F00054059C0181E0232B09F080E008958115CD
:1003000091F090910F03943070F4E92FF0E0E65FE4
:10031000FC4F80839F5F90930F030E94D80080E77B
:1003200091E00E94D70480910F03843051F4109221
:100330000E038AE093E00E94730180930001109203
:1003400001018091000190910101089582E0809364
:100350000001109201010E949103609310037093B9
:10036000110380931203909313030E94B5008A3205
:1003700041F40E94C4000E94AF0283E891E00C9413
:10038000D70408958FE991E00E94D7040E94C40029
:10039000EAE0F3E084E0DF011D928A95E9F710922C
:1003A0000F031092090388E0E1EFF2E0DF01982FDC
:1003B0001D929A95E9F7E9EFF2E0DF01982F1D927F
:1003C0009A95E9F7E1E0F3E0DF011D928A95E9F7FC
:1003D000AEEDB2E0E2E1F1E00E9461050E94AA0206
:1003E0008BEA91E00C94D7040E94C201C0E0D1E0F6
:1003F0000E94D2028330910509F489C0C0F4813093
:10040000910509F441C00297E9F40E94FE0087E2D9
:1004100092E00E94D70488EB9BE00E944E04C1E06A
:10042000811531F30E94C2010E94040109C0843089
:10043000910509F471C0059709F473C0C111EBCFA0
:10044000C0E0D6CF0E94A60163E170E08EED92E09D
:100450000E94D702811591F361EF72E08EED92E078
:100460000E942A0381EF92E00E947C03811539F0FB
:1004700085EC91E00E94D7040E94CB02DFCF8CED87
:1004800091E00E94D704DACF0E9407010E94B500D4
:100490000E947F018093000190930101019739F43C
:1004A00080EF91E00E94D7040E94BD02C7CF38F4CC
:1004B00080E092E00E94D7040E94C402BFCF0E9455
:1004C0009103209110033091110340911203509138
:1004D0001303621B730B840B950B69387341810501
:1004E000910510F0D09309038091000190910101D2
:1004F000029709F0A3CF80910903811509F49ECFDB
:1005000080E192E00E94D7040E94B60297CF0E9439
:1005100001018CE392E07DCF0E94390180E592E0F9
:1005200078CF89EF92E00E947301813081F48EE5EB
:1005300092E00E94D70481E093E00E94420181157D
:1005400009F469CF81E093E00E946C0164CF8DE6ED
:1005500092E05FCF1092150310921403089581E08A
:1005600090E09093150380931403089584E090E045
:100570009093150380931403089582E090E0909384
:10058000150380931403089583E090E0909315037E
:1005900080931403089585E090E090931503809371
:1005A0001403089580911403909115030895CF9337
:1005B000DF9300D000D0CDB7DEB78B839C836983F7
:1005C0007A830E94AE04811581F10E94B704909154
:1005D000160329813A81215031099217130668F5D3
:1005E0008D3011F08A30B9F4911599F0EB81FC81CE
:1005F000E90FF11D108286E892E00E94D7048B81FA
:100600009C810E94D7048DE691E00E94D70410924D
:10061000160381E00BC021E0290F209316032B81E4
:100620003C81290F311DF901808380E00F900F90EC
:100630000F900F90DF91CF9108952B813C81290F6E
:10064000311DF90110821092160383E992E00E9495
:10065000D704EBCF0F931F93CF93DF938C01EB0164
:100660009C0190E040E0605F7F4FF901808181153F
:10067000F1F1F9018C3299F41082DE01913010F021
:1006800021F41896F8010E9461059F5F89010F5FB0
:100690001F4F4F5F483078F42F5F3F4FE6CF818187
:1006A0008111F7CF9230A9F711929F01DB01F80178
:1006B0000E946105EECF911531F0413168F3913020
:1006C00011F0453149F784EA92E00E94D7048FE6A1
:1006D00091E0DE01FC010E946105DE011896FC013B
:1006E0000E946105DE015096FC010E946105DF91C8
:1006F000CF911F910F91089545E050E067EC72E0B3
:100700000E946F059C0181E0232B09F080E0089591
:1007100082E084BD93E095BD80936E0089EF87BD34
:1007200008952FB7F8946091180370911903809180
:100730001A0390911B032FBF0895E4E6F0E0808137
:100740008F7D8083EEE68081826080830895EEE66F
:10075000F0E080818D7F8083E4E680818062808309
:1007600008958FB7F89410921803109219031092FD
:100770001A0310921B038FBF0895EFB7F8942091CE
:1007800018033091190340911A0350911B03DC01A7
:10079000CB01820F931FA41FB51F80931803909362
:1007A0001903A0931A03B0931B03EFBF0895EF92B0
:1007B000FF920F931F93EFB7F89420911803309195
:1007C000190340911A0350911B0379018A01E61A1B
:1007D000F70A080B190BC701D801809318039093EF
:1007E0001903A0931A03B0931B03EFBF1F910F913E
:1007F000FF90EF900895CF93DF93CDB7DEB72897A2
:100800000FB6F894DEBF0FBECDBF69837A838B83AA
:100810009C830E9491036D837E838F8398870E94BF
:1008200091032D813E814F815885621B730B840B90
:10083000950B29813A814B815C816217730784078C
:10084000950768F328960FB6F894DEBF0FBECDBFAC
:10085000DF91CF9108951F921FB61F9211248F939D
:100860009F93AF93BF938091180390911903A09128
:100870001A03B0911B030196A11DB11D80931803AB
:1008800090931903A0931A03B0931B03BF91AF91E8
:100890009F918F911F901FBE1F901895CF93DF934C
:1008A00000D000D000D0CDB7DEB78D839E830E94EC
:1008B000910369837A838B839C830E9491032981AE
:1008C0003A814B815C81621B730B840B950B4D81CC
:1008D0005E81641775078105910578F381E00F90BB
:1008E0000F900F900F900F900F90DF91CF91089580
:1008F0001092C50087E68093C40086E08093C20012
:1009000088E98093C10008959091C00095FFFCCFC5
:100910008093C60008952F932FB72F933F938F9303
:100920009F93EF93FF932091C60080911D03019642
:100930008F7130911C03381741F0E0911D03F0E0F6
:10094000E25EFC4F208380931D03FF91EF919F9106
:100950008F913F912F912FBF2F91189520911D03BB
:1009600090911C0381E0291301C080E008959FB796
:10097000F89420911D0380911C03281779F0E091D1
:100980001C03F0E0E25EFC4F808120911C032F5F8E
:100990003F4F2F7120931C039FBF089580E0FCCF31
:1009A0009091C00095FFFCCF8093C6000895CF932F
:1009B000DF93EC018881811103C0DF91CF9108950D
:1009C00021960E94D004F6CFFF920F931F93CF93EE
:1009D000DF9300D000D000D0CDB7DEB79C01892BCB
:1009E00071F480E30F900F900F900F900F900F9085
:1009F000DF91CF911F910F91FF900C948404FE0121
:100A00003196F12C8F01C9016AE070E00E94400527
:100A1000F394805D80832A30310528F031969B0164
:100A200085E0F812F0CFFA94F801EF0DF11D808106
:100A30000E948404F110F7CF0F900F900F900F9049
:100A40000F900F90DF91CF911F910F91FF9008951C
:100A50000E9453000E9478040E9488030E94C900EB
:100A600084E191E00E94D7040E94AA02789485E272
:100A700091E00E943C010E94F40180E090E0089522
:100A8000AA1BBB1B51E107C0AA1FBB1FA617B707B4
:100A900010F0A61BB70B881F991F5A95A9F78095D0
:100AA0009095BC01CD010895FB01DC0104C08D913E
:100AB0000190801921F441505040C8F7881B990BD0
:100AC000089501900D920020E1F70895FC01019036
:100AD0000020E9F7809590958E0F9F1F0895FB01E8
:100AE000DC014150504030F08D910190801919F493
:100AF0000020B9F7881B990B0895FB01DC014150D8
:100B0000504048F001900D920020C9F701C01D929D
:0C0B100041505040E0F70895F894FFCFEA
:100B1C0002003132334134353642373839432A30CA
:100B2C002344000053797374656D2073746172747F
:100B3C0061740D0A0031373732006F6E6C792064A6
:100B4C006967697473200D0A00546F206C6F6E67AF
:100B5C002070696E206D757374206265203420647A
:100B6C006967697473200D0A0050617373206B659B
:100B7C00792075707064617465642021200D0A0001
:100B8C000D0A427574746F6E2070726573736564B0
:100B9C000D0A000D0A696E707574206672657175A8
:100BAC006E63652073746172746564200D0A000DA8
:100BBC000A52455354494E470D0A000D0A417769B4
:100BCC0061742073746172742066726571756E63E2
:100BDC0065200D0A00456E746572696E6720436866
:100BEC00616E67652070696E200D0A00556E6B6E24
:100BFC006E6F7720636F6D6D61646E6F200D0A00F0
:100C0C000D0A436F72726563742070696E0D0A0071
:100C1C000D0A496E76616C69642070696E0D0A006C
:100C2C000D0A2154494D45204F55542052454143FE
:100C3C00484544210D0A000D0A41434345535320B6
:100C4C004752414E54454420210D0A000D0A4143A0
:100C5C00434553532044454E49454420210D0A0039
:100C6C000D0A54494D454F555420210D0A00636F10
:100C7C007272656374206B6579200D0A00455252BF
:100C8C004F52202120494E56414C494420494E5048
:100C9C005554200D0A00596F757220696E70757469
:100CAC00203A00546F206C6F6E6720636F6D6D611E
:100CBC006E646F00546F6F206C6F6E6720616E6492
:100CCC00206F7220756E6B6E6F7720636F6D6D6128
:100CDC006E646F200D0A004E45572050494E00009F
:00000001FF
