:100000000C9434000C9451000C9451000C94510049
:100010000C9451000C9451000C9451000C9451001C
:100020000C9451000C9451000C9451000C9451000C
:100030000C9451000C9451000C9482040C945100C7
:100040000C9451000C9451000C940B050C9451002D
:100050000C9451000C9451000C9451000C945100DC
:100060000C9451000C94510011241FBECFEFD8E026
:10007000DEBFCDBF13E0A0E0B1E0E2E8FCE002C0EB
:1000800005900D92A631B107D9F723E0A6E1B3E0C0
:1000900001C01D92A937B207E1F70E94A8050C9490
:1000A00038060C9400008AB18C638AB98BB18C63DA
:1000B0008BB984B1807F84B985B18F6085B908958B
:1000C00080E09BB19C639BB98230D9F08330D9F03A
:1000D0008130A9F05A982AE12A95F1F700C093B12E
:1000E000E92FE17090FF12C0199B10C01A9B0DC040
:1000F0001B9B17C08F5F843021F780E008955B98C9
:10010000EACF5C98E8CF5D98E6CFE2E024E0829FFA
:10011000C00111248E5F9E4FE80FF92FF11D8081E1
:100120000895E3E0F3CFCF930E946000C82F8111C0
:1001300004C0C0E08C2FCF9108952FEF89EF90E09D
:10014000215080409040E1F700C000000E94600014
:100150008C13EFCF0E946000811561F38FE19EE464
:100160000197F1F700C00000F5CF0E9460008115F3
:1001700021F090911603981305C090E08093160328
:10018000892F0895982FFACF0E94B5008111FCCFD6
:100190000895249A259A2C9A2D980E94E80360933A
:1001A0001703709318038093190390931A0308950B
:1001B0000E94E80360931B0370931C0380931D034C
:1001C00090931E0385B190E2892785B90E94E803C8
:1001D00020911B0330911C0340911D0350911E037D
:1001E000621B730B840B950B6436710581059105B9
:1001F00068F385B190E2892785B908952D9A2C98E6
:1002000008952D982C9808952C9A2D9808950E9461
:10021000E80360931B0370931C0380931D0390936A
:100220001E0380911B0390911C03A0911D03B091AC
:100230001E034091170350911803609119037091A8
:100240001A03841B950BA60BB70B853F9140A105A4
:10025000B10570F085B190E1892785B90E94E80366
:1002600060931703709318038093190390931A03F4
:1002700008952C9A2D9A0895382F292FA82FB92F39
:1002800040E050E0832F922F0E940B064817590739
:1002900078F0832F922F0E940B060497B9F0832FDA
:1002A000922F0E940B060E94640584E391E006C031
:1002B0008C9180538A3030F085E291E00E9457059E
:1002C00080E0089511964F5F5F4FDCCF84E591E0A9
:1002D0000E94570581E00895CF93DF9300D000D0AE
:1002E0000F92CDB7DEB789839A836B837C831D829F
:1002F0003D81832F90E02B813C818217130640F0D3
:100300000F900F900F900F900F90DF91CF91089565
:10031000E981FA81E80FF91F60810E942A062D8188
:100320002F5F2D83E5CF65E070E00C946C018BE6C8
:1003300091E00E94570565E070E088E791E00C9439
:100340006C010F931F93CF93DF9300D000D00F92D7
:10035000CDB7DEB789839A836B837C831D828D81C1
:10036000082F10E08B819C810817190650F00F9020
:100370000F900F900F900F90DF91CF911F910F91E1
:100380000895C8010E942206E981FA81E00FF11F59
:1003900080832D812F5F2D83E2CFCF93DF9300D019
:1003A00000D000D00F92CDB7DEB78E839F8365E07B
:1003B00070E0CE0101960E94A10144E050E0BE0130
:1003C0006F5F7F4F8E819F810E94EE059C0181E0CF
:1003D000232B09F080E027960FB6F894DEBF0FBEFE
:1003E000CDBFDF91CF910895811591F090914A038F
:1003F000943070F4E92FF0E0EB5BFC4F80839F5F5B
:1004000090934A030E94D8008DE791E00E9457051F
:1004100080914A03843051F41092490385E493E0BB
:100420000E94CD0180930001109201018091000192
:1004300090910101089582E08093000110920101E2
:100440000E94E80360934B0370934C0380934D0329
:1004500090934E030E94B5008A3241F40E94C4007A
:100460000E94230380E991E00C94570508958CEADB
:1004700091E00E94570588EB9BE00E94A5040E9432
:10048000C400E5E4F3E084E0DF011D928A95E9F71A
:1004900010924A0310924403EFE1F3E088E0DF0199
:1004A0001D928A95E9F785E0E7E2F3E0DF01982FF6
:1004B0001D929A95E9F7ECE2F3E0DF011D928A952F
:1004C000E9F7A1E3B3E0E2E1F1E00E9406060E9451
:1004D0001E0388EB91E00C9457050E943702C1E09F
:1004E0000E944D0387309105D8F7FC01E65CF94F77
:1004F0000C94E8050E941B0263E170E081E393E045
:100500000E945203811561F36FE173E081E393E090
:100510000E94A5038FE193E00E94CF04811107C0E0
:1005200082ED91E00E9457050E943F03D9CF8FE1F1
:1005300093E00E94CF04813039F40E94460389EE93
:1005400091E00E945705CCCF86EF91E0FACF0E9450
:1005500007010E94B5000E94F4018093000190936E
:100560000101019739F48AE092E00E9457050E9448
:100570003103B6CF38F48AE192E00E9457050E9419
:100580003803AECF0E94E80320914B0330914C0317
:1005900040914D0350914E03621B730B840B950BDE
:1005A000693873418105910510F0C093440380912F
:1005B000000190910101029709F092CF80914403CC
:1005C000811509F48DCF8AE292E00E9457050E94BE
:1005D0002A0386CF0E94FE0081E492E00E94570524
:1005E0000E9437020E9404017BCF0E94010186E530
:1005F00092E0F4CF0E9439018AE692E0EFCF0E94A8
:10060000010187E293E00E94CD01813079F488E70F
:1006100092E00E9457058CE293E00E943C01811514
:10062000F9F28CE293E00E949301DACF87E892E03E
:10063000D5CF0E9401010E949701D2CF10925003A2
:1006400010924F03089581E090E0909350038093BF
:100650004F03089584E090E09093500380934F03FC
:10066000089582E090E09093500380934F030895A3
:1006700083E090E09093500380934F03089585E0CA
:1006800090E09093500380934F03089586E090E0AC
:100690009093500380934F03089580914F0390915E
:1006A00050030895CF93DF9300D000D0CDB7DEB7CD
:1006B0008B839C8369837A830E942E05811581F147
:1006C0000E9437059091510329813A8121503109C7
:1006D0009217130668F58D3011F08A30B9F4911530
:1006E00099F0EB81FC81E90FF11D108280EA92E024
:1006F0000E9457058B819C810E94570588E691E0F6
:100700000E9457051092510381E00BC021E0290F90
:10071000209351032B813C81290F311DF9018083E6
:1007200080E00F900F900F900F90DF91CF91089580
:100730002B813C81290F311DF90110821092510348
:100740008DEA92E00E945705EBCFCF93DF93AC0187
:1007500020E030E0EB012D96DA01EC91E11103C0CD
:10076000DF91CF9108954F5F5F4FEB33E9F4FA01CA
:100770001292DB01213010F021F41896FC010E9446
:1007800006062F5FCA013F5F383030F3211531F084
:10079000313110F3213011F03531F1F68EEB92E06A
:1007A000DF91CF910C945705DA01EC91E111EBCF79
:1007B000223049F7DE01FC010E940606E4CF82E008
:1007C00084BD93E095BD80936E0089EF87BD089549
:1007D0002FB7F8946091530370915403809155039F
:1007E000909156032FBF0895E4E6F0E080818F7D5D
:1007F0008083EEE68081826080830895EEE6F0E0FB
:1008000080818D7F8083E4E680818062808308958B
:100810008FB7F8941092530310925403109255031B
:10082000109256038FBF0895EFB7F89420915303A9
:10083000309154034091550350915603DC01CB0194
:10084000820F931FA41FB51F8093530390935403EB
:10085000A0935503B0935603EFBF0895EF92FF9214
:100860000F931F93EFB7F8942091530330915403E3
:10087000409155035091560379018A01E61AF70A0F
:10088000080B190BC701D8018093530390935403AD
:10089000A0935503B0935603EFBF1F910F91FF90A4
:1008A000EF900895CF93DF93CDB7DEB728970FB6BB
:1008B000F894DEBF0FBECDBF69837A838B839C83A0
:1008C0000E94E8036D837E838F8398870E94E803EC
:1008D0002D813E814F815885621B730B840B950BD4
:1008E00029813A814B815C816217730784079507E0
:1008F00068F328960FB6F894DEBF0FBECDBFDF9128
:10090000CF9108951F921FB61F9211248F939F932A
:10091000AF93BF938091530390915403A0915503DB
:10092000B09156030196A11DB11D8093530390937E
:100930005403A0935503B0935603BF91AF919F9179
:100940008F911F901FBE1F901895CF93DF9300D0FB
:1009500000D000D0CDB7DEB78D839E830E94E80320
:1009600069837A838B839C830E94E80329813A817F
:100970004B815C81621B730B840B950B4D815E81F7
:10098000641775078105910578F381E00F900F904A
:100990000F900F900F900F90DF91CF910895CF930C
:1009A000DF9300D0CDB7DEB789839A8347E050E06C
:1009B00061EE72E00E941406892BC1F069EE72E0CC
:1009C00089819A810E94FB05892B51F480EF92E086
:1009D0000E94570581E00F900F90DF91CF9108950D
:1009E00082E093E00E94570582E0F5CF80E0F3CFEC
:1009F0001092C50087E68093C40086E08093C20011
:100A000088E98093C10008959091C00095FFFCCFC4
:100A10008093C60008952F932FB72F933F938F9302
:100A20009F93EF93FF932091C60080915803019606
:100A30008F7130915703381741F0E0915803F0E07F
:100A4000E75AFC4F208380935803FF91EF919F91C9
:100A50008F913F912F912FBF2F911895209158037F
:100A60009091570381E0291301C080E008959FB75A
:100A7000F8942091580380915703281779F0E0915A
:100A80005703F0E0E75AFC4F8081209157032F5F16
:100A90003F4F2F71209357039FBF089580E0FCCFF5
:100AA0009091C00095FFFCCF8093C6000895CF932E
:100AB000DF93EC018881811103C0DF91CF9108950C
:100AC00021960E945005F6CFFF920F931F93CF936C
:100AD000DF9300D000D000D0CDB7DEB79C01892BCA
:100AE00071F480E30F900F900F900F900F900F9084
:100AF000DF91CF911F910F91FF900C940405FE019F
:100B00003196F12C8F01C9016AE070E00E94D40592
:100B1000F394805D80832A30310528F031969B0163
:100B200085E0F812F0CFFA94F801EF0DF11D808105
:100B30000E940405F110F7CF0F900F900F900F90C7
:100B40000F900F90DF91CF911F910F91FF9008951B
:100B500000D000D00F92CDB7DEB70E9453000E94A4
:100B6000F8040E94DF030E94C90084E191E00E9422
:100B700057050E941E03789465E070E0CE0101964F
:100B80000E94A101CE0101960E943C01811102C088
:100B90000E9497010E946D0280E090E00F900F90FC
:100BA0000F900F900F900895AA1BBB1B51E107C037
:100BB000AA1FBB1FA617B70710F0A61BB70B881FED
:100BC000991F5A95A9F780959095BC01CD0108957C
:100BD000EE0FFF1F0590F491E02D0994FB01DC015D
:100BE00004C08D910190801921F441505040C8F704
:100BF000881B990B0895FB01DC010C94FF058D9176
:100C0000019080190110D9F3990B089501900D926C
:100C10000020E1F70895FC0101900020E9F780959C
:100C200090958E0F9F1F0895FB01DC0141505040AD
:100C300030F08D910190801919F40020B9F7881BCC
:100C4000990B0895F999FECF92BD81BDF89A992725
:100C500080B50895262FF999FECF1FBA92BD81BDA8
:100C600020BD0FB6F894FA9AF99A0FBE019608952E
:100C7000F894FFCF7A02A702EA02F502FA02FF0215
:020C8000190356
:100C820002003132334134353642373839432A3063
:100C92002344000053797374656D20737461727418
:100CA20061740D0A006F6E6C7920646967697473F0
:100CB200200D0A00546F206C6F6E672070696E20E1
:100CC2006D7573742062652034206469676974737A
:100CD200200D0A0050617373206B65792075707066
:100CE20064617465642021200D0A00524553455405
:100CF2002050494E200D0A0031373732000D0A428A
:100D02007574746F6E20707265737365640D0A007A
:100D12000D0A696E7075742066726571756E636511
:100D22002073746172746564200D0A000D0A5245C5
:100D32005354494E470D0A000D0A417769617420E8
:100D420073746172742066726571756E6365200DCD
:100D52000A00456E746572696E67204368616E674A
:100D6200652070696E200D0A0052657365742070EB
:100D7200696E200D0A00556E6B6E6E6F7720636F81
:100D82006D6D61646E6F200D0A000D0A436F727201
:100D92006563742070696E0D0A000D0A496E7661F2
:100DA2006C69642070696E0D0A000D0A2154494D68
:100DB20045204F55542052454143484544210D0A90
:100DC200000D0A414343455353204752414E544577
:100DD2004420210D0A000D0A414343455353204448
:100DE200454E49454420210D0A000D0A54494D45FE
:100DF2004F555420210D0A00636F7272656374208F
:100E02006B6579200D0A004552524F52202120492C
:100E12004E56414C494420494E505554200D0A002B
:100E2200596F757220696E707574203A00546F2084
:100E32006C6F6E6720636F6D6D616E646F00546FCF
:100E42006F206C6F6E6720616E64206F7220756E0A
:100E52006B6E6F7720636F6D6D616E646F200D0A2C
:100E6200004E45572050494E0052455345543100DB
:100E720054524947474552205245534554203F0D4D
:100E82000A005452494747455220554E4B4E4F5740
:060E9200203F0D0A0000E4
:00000001FF
