:100000000C9434000C9451000C9451000C94510049
:100010000C9451000C9451000C9451000C9451001C
:100020000C9451000C9451000C9451000C9451000C
:100030000C9451000C9451000C9478040C945100D1
:100040000C9451000C9451000C94D8040C94510061
:100050000C9451000C9451000C9451000C945100DC
:100060000C9451000C94510011241FBECFEFD8E026
:10007000DEBFCDBF12E0A0E0B1E0E8ECFBE002C0E3
:1000800005900D92A03DB107D9F723E0A0EDB2E0B5
:1000900001C01D92A933B207E1F70E9475050C94C7
:1000A000E2050C9400008AB18C638AB98BB18C6331
:1000B0008BB984B1807F84B985B18F6085B908958B
:1000C00080E09BB19C639BB98230D9F08330D9F03A
:1000D0008130A9F05A982AE12A95F1F700C093B12E
:1000E000E92FE17090FF12C0199B10C01A9B0DC040
:1000F0001B9B17C08F5F843021F780E008955B98C9
:10010000EACF5C98E8CF5D98E6CFE2E024E0829FFA
:10011000C00111248E5F9E4FE80FF92FF11D8081E1
:100120000895E3E0F3CFCF930E946000C82F8111C0
:1001300004C0C0E08C2FCF9108952FEF89EF90E09D
:10014000215080409040E1F700C000000E94600014
:100150008C13EFCF0E946000811561F38FE19EE464
:100160000197F1F700C00000F5CF0E9460008115F3
:1001700021F09091D002981305C090E08093D002B6
:10018000892F0895982FFACF0E94B5008111FCCFD6
:100190000895249A259A2C9A2D980E94DE03609344
:1001A000D1027093D2028093D3029093D402089527
:1001B0000E94DE036093D5027093D6028093D7022B
:1001C0009093D80285B190E2892785B90E94DE0319
:1001D0002091D5023091D6024091D7025091D80299
:1001E000621B730B840B950B6436710581059105B9
:1001F00068F385B190E2892785B908952D9A2C98E6
:1002000008952D982C9808952C9A2D9808950E9461
:10021000DE036093D5027093D6028093D702909349
:10022000D8028091D5029091D602A091D702B091C8
:10023000D8024091D1025091D2026091D3027091C4
:10024000D402841B950BA60BB70B853F9140A105EB
:10025000B10570F085B190E1892785B90E94DE0370
:100260006093D1027093D2028093D3029093D40210
:1002700008952C9A2D9A0895382F292FA82FB92F39
:1002800040E050E0832F922F0E94B5054817590790
:1002900078F0832F922F0E94B5050497B9F0832F31
:1002A000922F0E94B5050E94310589E391E006C0B6
:1002B0008C9180538A3030F08AE291E00E942405CC
:1002C00080E0089511964F5F5F4FDCCF89E591E0A4
:1002D0000E94240581E00895CF93DF9300D000D0E1
:1002E0000F92CDB7DEB789839A836B837C831D829F
:1002F0003D81832F90E02B813C818217130640F0D3
:100300000F900F900F900F900F90DF91CF91089565
:10031000E981FA81E80FF91F60810E94D4052D81DF
:100320002F5F2D83E5CF65E070E00C946C010F9397
:100330001F93CF93DF9300D000D00F92CDB7DEB7DD
:1003400089839A836B837C831D828D81082F10E0C3
:100350008B819C810817190650F00F900F900F9019
:100360000F900F90DF91CF911F910F910895C801C9
:100370000E94CC05E981FA81E00FF11F80832D8175
:100380002F5F2D83E2CFCF93DF9300D000D000D03A
:100390000F92CDB7DEB78E839F8365E070E0CE010C
:1003A00001960E94970144E050E0BE016F5F7F4FCD
:1003B0008E819F810E94A3059C0181E0232B09F07F
:1003C00080E027960FB6F894DEBF0FBECDBFDF9159
:1003D000CF910895811591F090910A03943070F4B3
:1003E000E92FF0E0EB5FFC4F80839F5F90930A035F
:1003F0000E94D80080E791E00E94240580910A03C2
:10040000843051F41092090385E093E00E94C30107
:1004100080930001109201018091000190910101EF
:10042000089582E080930001109201010E94DE0392
:1004300060930B0370930C0380930D0390930E0352
:100440000E94B5008A3241F40E94C4000E94140345
:1004500083E891E00C94240508958FE991E00E94CF
:10046000240588EB9BE00E949B040E94C400E5E009
:10047000F3E084E0DF011D928A95E9F710920A0308
:100480001092040388E0ECEEF2E0DF01982F1D9259
:100490009A95E9F7E4EFF2E0DF01982F1D929A9523
:1004A000E9F7ECEFF2E0DF011D928A95E9F7A9ED9B
:1004B000B2E0E2E1F1E00E94B0050E940F038BEA96
:1004C00091E00C9424050E942D02C1E00E943703A4
:1004D0008330910509F496C068F48130910509F4E0
:1004E0004EC0029749F50E94FE0087E292E00E940A
:1004F00024051DC08430910509F489C0059731F7A2
:100500000E94010184EF92E00E94C301813009F052
:1005100083C08EE592E00E9424058CEF92E00E9459
:100520003C01811521F08CEF92E00E9493010E9422
:100530002D020E940401CACF0E94110263E170E003
:1005400089ED92E00E943C03811509F4BFCF6CEE67
:1005500072E089ED92E00E948F038CEE92E00E949F
:10056000C903811539F085EC91E00E9424050E94B1
:100570003003ACCF8CED91E00E942405A7CF0E9400
:1005800007010E94B5000E94EA0180930001909348
:100590000101019739F480EF91E00E9424050E9447
:1005A000220394CF38F480E092E00E9424050E9458
:1005B00029038CCF0E94DE0320910B0330910C03A2
:1005C00040910D0350910E03621B730B840B950B2E
:1005D000693873418105910510F0C093040380913F
:1005E000000190910101029709F070CF80910403FE
:1005F000811509F46BCF80E192E00E9424050E94EE
:100600001B0364CF0E9401018CE392E070CF0E9433
:10061000390180E592E06BCF8DE692E068CF1092D1
:10062000100310920F03089581E090E0909310035F
:1006300080930F03089584E090E0909310038093DB
:100640000F03089582E090E09093100380930F03CE
:10065000089583E090E09093100380930F03089532
:1006600085E090E09093100380930F0308958091AC
:100670000F03909110030895CF93DF9300D000D023
:10068000CDB7DEB78B839C8369837A830E94FB049A
:10069000811581F10E9404059091110329813A810D
:1006A000215031099217130668F58D3011F08A3008
:1006B000B9F4911599F0EB81FC81E90FF11D1082DD
:1006C00086E892E00E9424058B819C810E9424058B
:1006D0008DE691E00E9424051092110381E00BC089
:1006E00021E0290F209311032B813C81290F311D1B
:1006F000F901808380E00F900F900F900F90DF91B1
:10070000CF9108952B813C81290F311DF901108271
:100710001092110383E992E00E942405EBCFCF935E
:10072000DF93AC0120E030E0EB016096DA01EC9160
:10073000E11103C0DF91CF9108954F5F5F4FEB331D
:10074000E9F4FA011292DB01213010F021F418963D
:10075000FC010E94B0052F5FCA013F5F383030F3C3
:10076000211531F0313110F3213011F03531F1F62E
:1007700084EA92E0DF91CF910C942405DA01EC91A8
:10078000E111EBCF223049F7DE01FC010E94B005F8
:10079000E4CF46E050E067EC72E00E94BE059C01A9
:1007A00081E0232B09F080E0089582E084BD93E08E
:1007B00095BD80936E0089EF87BD08952FB7F8949B
:1007C00060911303709114038091150390911603A7
:1007D0002FBF0895E4E6F0E080818F7D8083EEE610
:1007E0008081826080830895EEE6F0E080818D7FD5
:1007F0008083E4E680818062808308958FB7F894D7
:100800001092130310921403109215031092160302
:100810008FBF0895EFB7F89420911303309114031C
:100820004091150350911603DC01CB01820F931FF9
:10083000A41FB51F8093130390931403A093150373
:10084000B0931603EFBF0895EF92FF920F931F939B
:10085000EFB7F894209113033091140340911503DE
:100860005091160379018A01E61AF70A080B190B51
:10087000C701D8018093130390931403A093150329
:10088000B0931603EFBF1F910F91FF90EF90089563
:10089000CF93DF93CDB7DEB728970FB6F894DEBFBE
:1008A0000FBECDBF69837A838B839C830E94DE0356
:1008B0006D837E838F8398870E94DE032D813E8126
:1008C0004F815885621B730B840B950B29813A81EC
:1008D0004B815C81621773078407950768F328963C
:1008E0000FB6F894DEBF0FBECDBFDF91CF91089554
:1008F0001F921FB61F9211248F939F93AF93BF93A4
:100900008091130390911403A0911503B0911603E5
:100910000196A11DB11D8093130390931403A0931E
:100920001503B0931603BF91AF919F918F911F90C4
:100930001FBE1F901895CF93DF9300D000D000D03A
:10094000CDB7DEB78D839E830E94DE0369837A83F1
:100950008B839C830E94DE0329813A814B815C81D9
:10096000621B730B840B950B4D815E8164177507B9
:100970008105910578F381E00F900F900F900F9013
:100980000F900F90DF91CF9108951092C50087E6E8
:100990008093C40086E08093C20088E98093C10000
:1009A00008959091C00095FFFCCF8093C6000895F4
:1009B0002F932FB72F933F938F939F93EF93FF9393
:1009C0002091C6008091180301968F713091170312
:1009D000381741F0E0911803F0E0E75EFC4F208308
:1009E00080931803FF91EF919F918F913F912F91E9
:1009F0002FBF2F911895209118039091170381E034
:100A0000291301C080E008959FB7F894209118033E
:100A100080911703281779F0E0911703F0E0E75E63
:100A2000FC4F8081209117032F5F3F4F2F71209340
:100A300017039FBF089580E0FCCF9091C00095FF01
:100A4000FCCF8093C6000895CF93DF93EC0188819B
:100A5000811103C0DF91CF91089521960E941D0559
:100A6000F6CFFF920F931F93CF93DF9300D000D068
:100A700000D0CDB7DEB79C01892B71F480E30F90D5
:100A80000F900F900F900F900F90DF91CF911F91CB
:100A90000F91FF900C94D104FE013196F12C8F013F
:100AA000C9016AE070E00E948F05F394805D808345
:100AB0002A30310528F031969B0185E0F812F0CFFD
:100AC000FA94F801EF0DF11D80810E94D104F1101C
:100AD000F7CF0F900F900F900F900F900F90DF9126
:100AE000CF911F910F91FF9008950E9453000E9493
:100AF000C5040E94D5030E94C90084E191E00E94D0
:100B000024050E940F03789465E070E085E291E08F
:100B10000E946C010E94630280E090E00895AA1B8D
:100B2000BB1B51E107C0AA1FBB1FA617B70710F0D8
:100B3000A61BB70B881F991F5A95A9F7809590950A
:100B4000BC01CD010895FB01DC0104C08D91019031
:100B5000801921F441505040C8F7881B990B089523
:100B600001900D920020E1F70895FC010190002012
:100B7000E9F7809590958E0F9F1F0895FB01DC018A
:100B80004150504030F08D910190801919F40020AF
:100B9000B9F7881B990B0895F999FECF92BD81BDD5
:100BA000F89A992780B50895262FF999FECF1FBA94
:100BB00092BD81BD20BD0FB6F894FA9AF99A0FBE86
:080BC00001960895F894FFCF9F
:100BC80002003132334134353642373839432A301E
:100BD8002344000053797374656D207374617274D3
:100BE80061740D0A0031373732006F6E6C792064FA
:100BF8006967697473200D0A00546F206C6F6E6703
:100C08002070696E206D75737420626520342064CD
:100C18006967697473200D0A0050617373206B65EE
:100C2800792075707064617465642021200D0A0054
:100C38000D0A427574746F6E207072657373656403
:100C48000D0A000D0A696E707574206672657175FB
:100C58006E63652073746172746564200D0A000DFB
:100C68000A52455354494E470D0A000D0A41776907
:100C780061742073746172742066726571756E6335
:100C880065200D0A00456E746572696E67204368B9
:100C9800616E67652070696E200D0A00556E6B6E77
:100CA8006E6F7720636F6D6D61646E6F200D0A0043
:100CB8000D0A436F72726563742070696E0D0A00C5
:100CC8000D0A496E76616C69642070696E0D0A00C0
:100CD8000D0A2154494D45204F5554205245414352
:100CE800484544210D0A000D0A414343455353200A
:100CF8004752414E54454420210D0A000D0A4143F4
:100D0800434553532044454E49454420210D0A008C
:100D18000D0A54494D454F555420210D0A00636F63
:100D28007272656374206B6579200D0A0045525212
:100D38004F52202120494E56414C494420494E509B
:100D48005554200D0A00596F757220696E707574BC
:100D5800203A00546F206C6F6E6720636F6D6D6171
:100D68006E646F00546F6F206C6F6E6720616E64E5
:100D7800206F7220756E6B6E6F7720636F6D6D617B
:100D88006E646F200D0A004E45572050494E0000F2
:00000001FF
