:100000000C9434000C9451000C9451000C94510049
:100010000C9451000C9451000C9451000C9451001C
:100020000C9451000C9451000C9451000C9451000C
:100030000C9451000C9451000C9475030C945100D5
:100040000C9451000C9451000C9451000C945100EC
:100050000C9451000C9451000C9451000C945100DC
:100060000C9451000C94510011241FBECFEFD8E026
:10007000DEBFCDBF11E0A0E0B1E0ECE0F8E002C0EF
:1000800005900D92AC3FB107D9F722E0ACEFB1E09B
:1000900001C01D92A431B207E1F70E94E1030C9464
:1000A00004040C9400008AB18C638AB98BB18C6310
:1000B0008BB984B1807F84B985B18F6085B908958B
:1000C00080E09BB19C639BB98230D9F08330D9F03A
:1000D0008130A9F05A982AE12A95F1F700C093B12E
:1000E000E92FE17090FF12C0199B10C01A9B0DC040
:1000F0001B9B17C08F5F843021F780E008955B98C9
:10010000EACF5C98E8CF5D98E6CFE2E024E0829FFA
:10011000C00111248A5F9E4FE80FF92FF11D8081E5
:100120000895E3E0F3CFCF930E946000C82F8111C0
:1001300004C0C0E08C2FCF9108952FEF89EF90E09D
:10014000215080409040E1F700C000000E94600014
:100150008C13EFCF0E946000811561F38FE19EE464
:100160000197F1F700C00000F5CF0C949300249A9A
:10017000259A2C9A2D980E94DB026093FC017093C3
:10018000FD018093FE019093FF0108950E94DB0220
:100190006093000270930102809302029093030225
:1001A00085B190E2892785B90E94DB022091000287
:1001B000309101024091020250910302621B730BC5
:1001C000840B950B643671058105910568F385B143
:1001D00090E2892785B908952D9A2C9808950E9458
:1001E000DB026093000270930102809302029093FD
:1001F00003028091000290910102A0910202B0914D
:1002000003024091FC015091FD016091FE0170914B
:10021000FF01841B950BA60BB70B883E9340A105ED
:10022000B10570F085B190E1892785B90E94DB02A4
:100230006093FC017093FD018093FE019093FF0198
:1002400008952C9A2D9808950E94DB026093000275
:100250007093010280930202909303028091000246
:1002600090910102A0910202B09103024091FC0121
:100270005091FD016091FE017091FF01841B950B6F
:10028000A60BB70B853F9140A105B10570F085B174
:1002900090E1892785B90E94DB026093FC0170938D
:1002A000FD018093FE019093FF01089586E191E0A6
:1002B0000E94D4030E94DB0260930002709301024B
:1002C00080930202909303022C9A2D9A0E94DB02E3
:1002D00020910002309101024091020250910302EC
:1002E000621B730B840B950B6436710581059105B8
:1002F00068F385B1807185B985B1807285B90E9436
:10030000DB026093000270930102809302029093DB
:1003100003022C9A2D9A0E94DB0220910002309158
:1003200001024091020250910302621B730B840B85
:10033000950B643671058105910568F385B180716F
:1003400085B985B1807285B90895811591F0909134
:100350000902943070F4E92FF0E0EB5FFD4F8083E9
:100360009F5F909309020E94C60089E391E00E947A
:10037000D40380910902843051F465E072E080E09A
:1003800091E00E9494028093040190930501809172
:100390000401909105010895CF9382E080930401B8
:1003A000109205010E94B500C82F8A32B1F48091E5
:1003B00004028A3291F00E949F020E9473020E94FE
:1003C000DB0260930A0270930B0280930C029093FD
:1003D0000D028CE491E00E94D403C0930402CF91FB
:1003E000089544E052E065E072E089E092E00E9406
:1003F000A402C0E00E948F028230910509F44CC033
:1004000038F4892B51F50E94CC0109C0C1E0F2CF2C
:100410008330910509F458C0049709F45AC0C115F6
:1004200041F340C038F488E791E00E94D4030E9471
:10043000880225C00E94DB0220910A0230910B0243
:1004400040910C0250910D02621B730B840B950BB3
:10045000683873418105910590F40E9424010E943F
:10046000B5000E94A50180930401909305010197B6
:10047000C9F688E691E00E94D4030E94810280912F
:10048000040190910501029751F688E891E00E94DD
:10049000D4030E947A02C3CF0E94EC008FE991E05E
:1004A0000E94D40388EB9BE00E949803811509F415
:1004B000ADCF44E052E065E072E089E092E00E9456
:1004C000A4020E94210195CF0E94EF0084EB91E0ED
:1004D000E7CF0E94560188EC91E0E2CF10920F0224
:1004E00010920E02089581E090E090930F028093A5
:1004F0000E02089584E090E090930F0280930E0224
:10050000089582E090E090930F0280930E02089588
:1005100083E090E090930F0280930E020895809103
:100520000E0290910F02089544E050E00E94F703FC
:100530009C0181E090E0232B09F080E008950E9467
:10054000B5008111FCCF0895CF93DF9300D000D088
:1005500000D0CDB7DEB789839A836B837C834D83CC
:100560005E8386ED91E00E94D4030E949F0284E0A6
:10057000EB81FC8111928A95E9F7E981FA81108279
:100580000E946E0282EE91E00E94D403ED81FE8112
:1005900010820F900F900F900F900F900F90DF919F
:1005A000CF91089582E084BD93E095BD80936E0065
:1005B00089EF87BD08952FB7F8946091100270916C
:1005C000110280911202909113022FBF0895E4E668
:1005D000F0E080818F7D8083EEE680818260808381
:1005E0000895EEE6F0E080818D7F8083E4E68081EF
:1005F0008062808308958FB7F89410921002109251
:10060000110210921202109213028FBF0895EFB7D9
:10061000F8942091100230911102409112025091F1
:100620001302DC01CB01820F931FA41FB51F80931F
:10063000100290931102A0931202B0931302EFBF25
:100640000895EF92FF920F931F93EFB7F8942091C4
:10065000100230911102409112025091130279015F
:100660008A01E61AF70A080B190BC701D801809313
:10067000100290931102A0931202B0931302EFBFE5
:100680001F910F91FF90EF900895CF93DF93CDB717
:10069000DEB728970FB6F894DEBF0FBECDBF6983D3
:1006A0007A838B839C830E94DB026D837E838F839E
:1006B00098870E94DB022D813E814F815885621B05
:1006C000730B840B950B29813A814B815C816217F6
:1006D00073078407950768F328960FB6F894DEBF72
:1006E0000FBECDBFDF91CF9108951F921FB61F920D
:1006F00011248F939F93AF93BF9380911002909199
:100700001102A0911202B09113020196A11DB11D18
:100710008093100290931102A0931202B0931302DF
:10072000BF91AF919F918F911F901FBE1F90189501
:10073000CF93DF9300D000D000D0CDB7DEB78D834C
:100740009E830E94DB0269837A838B839C830E9451
:10075000DB0229813A814B815C81621B730B840B24
:10076000950B4D815E81641775078105910578F3BE
:1007700081E00F900F900F900F900F900F90DF91EE
:10078000CF9108959093C5008093C40088E0809332
:10079000C10086E08093C20008959091C00095FF4B
:1007A000FCCF8093C6000895CF93DF93EC0188813E
:1007B000811103C0DF91CF91089521960E94CD034E
:1007C000F6CF0E94530087E690E00E94C2030E9489
:1007D000D2020E94B70088E291E00E94D4030E94F6
:1007E0006E0278940E94F10180E090E00895FB0190
:1007F000DC0104C08D910190801921F441505040DA
:0C080000C8F7881B990B0895F894FFCFEF
:10080C0031373732020031323341343536423738E2
:10081C0039432A3023440D0A737475636B20686561
:10082C007265203F3F0D0A0053797374656D207318
:10083C007461727461740D0A000D0A427574746FE0
:10084C006E20707265737365640D0A000D0A696E13
:10085C007075742066726571756E63652073746152
:10086C0072746564200D0A000D0A436F7272656321
:10087C00742070696E0D0A000D0A496E76616C6900
:10088C00642070696E0D0A000D0A2154494D4520F3
:10089C004F55542052454143484544210D0A000D03
:1008AC000A414343455353204752414E544544203B
:1008BC00210D0A000D0A4143434553532044454E34
:1008CC0049454420210D0A000D0A54494D454F5508
:1008DC005420210D0A000D0A52455354494E470D20
:1008EC000A000D0A41776961742073746172742077
:0C08FC0066726571756E6365200D0A0060
:00000001FF
