:100000000C9434000C9451000C9451000C94510049
:100010000C9451000C9451000C9451000C9451001C
:100020000C9451000C9451000C9451000C9451000C
:100030000C9451000C9451000C94B6010C94510096
:100040000C9451000C9451000C9451000C945100EC
:100050000C9451000C9451000C9451000C945100DC
:100060000C9451000C94510011241FBECFEFD8E026
:10007000DEBFCDBF11E0A0E0B1E0E2E7F4E002C0F6
:1000800005900D92AE35B107D9F721E0AEE5B1E0AC
:1000900001C01D92A236B207E1F70E94F8010C944C
:1000A00037020C9400008AB18C638AB98BB18C63DF
:1000B0008BB984B1807F84B985B18F6085B908958B
:1000C00080E09BB19C639BB98230D9F08330D9F03A
:1000D0008130A9F05A982AE12A95F1F700C093B12E
:1000E000E92FE17090FF12C0199B10C01A9B0DC040
:1000F0001B9B17C08F5F843021F780E008955B98C9
:10010000EACF5C98E8CF5D98E6CFE2E024E0829FFA
:10011000C001112480509F4FE80FF92FF11D8081FD
:100120000895E3E0F3CFCF930E946000C82F8111C0
:1001300004C0C0E08C2FCF9108952FEF89EF90E09D
:10014000215080409040E1F700C000000E94600014
:100150008C13EFCF0E946000811561F38FE19EE464
:100160000197F1F700C00000F5CF249A259A2C984A
:100170002D980895CF93DF9300D000D0CDB7DEB790
:100180000E941C0169837A838B839C832C9A0E9432
:100190001C0129813A814B815C81621B730B840BAA
:1001A000950B663971058105910588F385B190E15C
:1001B000892785B90F900F900F900F90DF91CF9105
:1001C0000895CF93DF9300D000D0CDB7DEB70E9463
:1001D0001C0169837A838B839C8385B190E1892795
:1001E00085B980E191E00E94EB010E941C01298108
:1001F0003A814B815C81621B730B840B950B6639D2
:1002000071058105910588F78DE191E00E94EB0170
:1002100085B190E1892785B90F900F900F900F90CD
:10022000DF91CF91089582E084BD93E095BD8093E6
:100230006E0089EF87BD08952FB7F89460915E0135
:1002400070915F0180916001909161012FBF0895CD
:10025000E4E6F0E080818F7D8083EEE6808182603D
:1002600080830895EEE6F0E080818D7F8083E4E670
:1002700080818062808308958FB7F89410925E0128
:1002800010925F0110926001109261018FBF08957A
:10029000EFB7F89420915E0130915F0140916001C9
:1002A00050916101DC01CB01820F931FA41FB51F88
:1002B00080935E0190935F01A0936001B093610110
:1002C000EFBF0895EF92FF920F931F93EFB7F8944B
:1002D00020915E0130915F01409160015091610178
:1002E00079018A01E61AF70A080B190BC701D80130
:1002F00080935E0190935F01A0936001B0936101D0
:10030000EFBF1F910F91FF90EF900895CF93DF9370
:10031000CDB7DEB728970FB6F894DEBF0FBECDBFBE
:1003200069837A838B839C830E941C016D837E8307
:100330008F8398870E941C012D813E814F815885B3
:10034000621B730B840B950B29813A814B815C8175
:10035000621773078407950768F328960FB6F89419
:10036000DEBF0FBECDBFDF91CF9108951F921FB6A4
:100370001F9211248F939F93AF93BF9380915E013F
:1003800090915F01A0916001B09161010196A11D62
:10039000B11D80935E0190935F01A0936001B093C3
:1003A0006101BF91AF919F918F911F901FBE1F90D0
:1003B00018959093C5008093C40088E08093C10095
:1003C00086E08093C20008959091C00095FFFCCF15
:1003D0008093C6000895CF93DF93EC01888181114B
:1003E00003C0DF91CF91089521960E94E401F6CFDA
:1003F00000D000D0CDB7DEB70E94530087E690E072
:100400000E94D9010E9413010E94B50078948BE2EA
:1004100091E00E94EB017E018FEFE81AF80A870154
:10042000B12C0E949300D82E8115D9F38CE391E072
:100430000E94EB018D2D0E94E4018AE591E00E946B
:10044000EB010E94BA00F801D08285E491E00E949D
:10045000EB016701F60181916F010E94E4018C2D8F
:100460008E19B816B8F70F5F1F4FB394DACFF89410
:02047000FFCFBC
:100472003132334134353642373839432A30234416
:10048200546F67676C65206F6E200D0A00546F67AA
:10049200676C65206F6666200D0A00537973746578
:1004A2006D20737461727461740D0A005472796301
:1004B2006B743A2000436F6D62696E6174696F6E8E
:0E04C20020736C6167656E203A200D0A000001
:00000001FF
