:100000000C9434000C9451000C9451000C94510049
:100010000C9451000C9451000C9451000C9451001C
:100020000C9451000C9451000C9451000C9451000C
:100030000C9451000C9451000C94CB030C9451007F
:100040000C9451000C9451000C942B040C9451000E
:100050000C9451000C9451000C9451000C945100DC
:100060000C9451000C94510011241FBECFEFD8E026
:10007000DEBFCDBF12E0A0E0B1E0E4E2FAE002C0F2
:1000800005900D92A236B107D9F722E0A2E6B2E0C0
:1000900001C01D92AA3CB207E1F70E94C8040C946B
:1000A00010050C940000CF93DF93EB01AC0120E02E
:1000B00030E0605F7F4FDA01EC91E11579F14F5F3D
:1000C0005F4FEC3271F5FA011292DE01213010F02F
:1000D00021F41896FC010E94FD042F5FCA013F5FC6
:1000E000383048F3211531F0313128F3213011F047
:1000F000353109F789E191E00E94770483E891E0C6
:10010000DE01FC010E94FD04DE011896FC010E9444
:10011000FD04DE015096FC010E94FD04DF91CF91A9
:100120000895DA01EC91E111DACF2230C1F6DB015A
:10013000FC010E94FD04D3CF45E050E06CE371E088
:100140000E9402059C0181E0232B09F080E00895C4
:100150008AB18C638AB98BB18C638BB984B1807F8F
:1001600084B985B18F6085B9089580E09BB19C63A7
:100170009BB98230D9F08330D9F08130A9F05A98F8
:100180002AE12A95F1F700C093B1E92FE17090FFC1
:1001900012C0199B10C01A9B0DC01B9B17C08F5F0C
:1001A000843021F780E008955B98EACF5C98E8CF2F
:1001B0005D98E6CFE2E024E0829FC0011124895FD0
:1001C0009E4FE80FF92FF11D80810895E3E0F3CFF2
:1001D000CF930E94B500C82F811104C0C0E08C2FBE
:1001E000CF9108952FEF89EF90E02150804090400B
:1001F000E1F700C000000E94B5008C13EFCF0E9411
:10020000B500811561F38FE19EE40197F1F700C01D
:100210000000F5CF0E94B500811521F09091630296
:10022000981305C090E080936302892F0895982F5A
:10023000FACF249A259A2C9A2D980E943103609324
:10024000640270936502809366029093670208953A
:100250000E943103609368027093690280936A027E
:1002600090936B0285B190E2892785B90E94310392
:10027000209168023091690240916A0250916B02AC
:10028000621B730B840B950B643671058105910518
:1002900068F385B190E2892785B908952D9A2C9845
:1002A00008952D982C9808952C9A2D9808950E94C1
:1002B0003103609368027093690280936A0290939D
:1002C0006B028091680290916902A0916A02B091DC
:1002D0006B024091640250916502609166027091D8
:1002E0006702841B950BA60BB70B853F9140A105B8
:1002F000B10570F085B190E1892785B90E9431037D
:100300006093640270936502809366029093670223
:1003100008952C9A2D9A0895811591F090919C0240
:10032000943070F4E92FF0E0E856FD4F80839F5F32
:1003300090939C020E94280185E591E00E94770439
:1003400080919C02843051F468E972E080E091E091
:100350000E94180380930501909306018091050186
:1003600090910601089582E08093050110920601A4
:100370000E94310360939D0270939E0280939F02BE
:100380009093A0020E940A018A3241F40E94230342
:100390000E949D0288E691E00C947704089584E819
:1003A00091E00E9477040E942303E8E9F2E084E0F0
:1003B000DF011D928A95E9F710929C021092970234
:1003C00087E191E0AFE7B2E0FC010E94FD04A7E8FD
:1003D000B2E0FC010E94FD04AFE8B2E0FC010E9423
:1003E000FD04ACE6B2E0FC010E94FD040E9498020C
:1003F00080E991E00C9477040E94CF01C0E0D1E045
:100400000E94C0028330910509F488C0C0F4813095
:10041000910509F440C00297E1F40E944E018CE07E
:1004200092E00E94770488EB9BE00E94EE03C1E01B
:10043000811531F30E94CF010E94540108C084301D
:10044000910509F470C0059771F3C111ECCFC0E0BC
:10045000D7CF0E94B30163E170E08CE692E00E9486
:10046000C502811591F36FE772E08CE692E00E947D
:1004700053008FE792E00E949C00811539F08AEAD0
:1004800091E00E9477040E94B902DFCF81EC91E0F5
:100490000E947704DACF0E9457010E940A010E944D
:1004A0008C018093050190930601019739F485ED45
:1004B00091E00E9477040E94AB02C7CF38F485EE2A
:1004C00091E00E9477040E94B202BFCF0E943103E4
:1004D00020919D0230919E0240919F025091A00276
:1004E000621B730B840B950B693873418105910571
:1004F00010F0D09397028091050190910601029728
:1005000009F0A3CF80919702811509F49ECF85EF62
:1005100091E00E9477040E94A40297CF0E945101AB
:1005200081E292E07ECF0E94890185E392E079CF5B
:100530001092A2021092A102089581E090E090939F
:10054000A2028093A102089584E090E09093A20219
:100550008093A102089582E090E09093A20280939C
:10056000A102089583E090E09093A2028093A102FB
:10057000089585E090E09093A2028093A1020895EF
:100580008091A1029091A2020895CF93DF9300D0B1
:1005900000D0CDB7DEB78B839C8369837A830E94BA
:1005A0004E04811581F10E9457049091A302298184
:1005B0003A81215031099217130668F58D3011F0F8
:1005C0008A30B9F4911599F0EB81FC81E90FF11DA6
:1005D000108283E492E00E9477048B819C810E94C8
:1005E000770481E891E00E9477041092A30281E0F1
:1005F0000BC021E0290F2093A3022B813C81290FFE
:10060000311DF901808380E00F900F900F900F90C3
:10061000DF91CF9108952B813C81290F311DF90184
:1006200010821092A30280E592E00E947704EBCF43
:1006300044E050E00E94F0049C0181E090E0232B14
:1006400009F080E008950E940A018111FCCF08950D
:1006500082E084BD93E095BD80936E0089EF87BDF5
:1006600008952FB7F8946091A4027091A50280912B
:10067000A6029091A7022FBF0895E4E6F0E08081E2
:100680008F7D8083EEE68081826080830895EEE630
:10069000F0E080818D7F8083E4E6808180628083CA
:1006A00008958FB7F8941092A4021092A5021092A8
:1006B000A6021092A7028FBF0895EFB7F894209179
:1006C000A4023091A5024091A6025091A702DC013C
:1006D000CB01820F931FA41FB51F8093A402909398
:1006E000A502A093A602B093A702EFBF0895EF92D0
:1006F000FF920F931F93EFB7F8942091A4023091CB
:10070000A5024091A6025091A70279018A01E61A3A
:10071000F70A080B190BC701D8018093A402909324
:10072000A502A093A602B093A702EFBF1F910F915D
:10073000FF90EF900895CF93DF93CDB7DEB7289762
:100740000FB6F894DEBF0FBECDBF69837A838B836B
:100750009C830E9431036D837E838F8398870E94E0
:1007600031032D813E814F815885621B730B840BB1
:10077000950B29813A814B815C816217730784074D
:10078000950768F328960FB6F894DEBF0FBECDBF6D
:10079000DF91CF9108951F921FB61F9211248F935E
:1007A0009F93AF93BF938091A4029091A502A091D3
:1007B000A602B091A7020196A11DB11D8093A402CB
:1007C0009093A502A093A602B093A702BF91AF9108
:1007D0009F918F911F901FBE1F901895CF93DF930D
:1007E00000D000D000D0CDB7DEB78D839E830E94AD
:1007F000310369837A838B839C830E94310329812F
:100800003A814B815C81621B730B840B950B4D818C
:100810005E81641775078105910578F381E00F907B
:100820000F900F900F900F900F90DF91CF91089540
:100830001092C50087E68093C40086E08093C200D2
:1008400088E98093C10008959091C00095FFFCCF86
:100850008093C60008952F932FB72F933F938F93C4
:100860009F93EF93FF932091C6008091A902019678
:100870008F713091A802381741F0E091A902F0E0A1
:10088000E655FD4F20838093A902FF91EF919F9140
:100890008F913F912F912FBF2F9118952091A902F1
:1008A0009091A80281E0291301C080E008959FB7CC
:1008B000F8942091A9028091A802281779F0E0917C
:1008C000A802F0E0E655FD4F80812091A8022F5F3D
:1008D0003F4F2F712093A8029FBF089580E0FCCF67
:1008E0009091C00095FFFCCF8093C6000895CF93F0
:1008F000DF93EC018881811103C0DF91CF910895CE
:1009000021960E947004F6CFFF920F931F93CF930E
:10091000DF9300D000D000D0CDB7DEB79C01892B8B
:1009200071F480E30F900F900F900F900F900F9045
:10093000DF91CF911F910F91FF900C942404FE0141
:100940003196F12C8F01C9016AE070E00E94DC044D
:10095000F394805D80832A30310528F031969B0125
:1009600085E0F812F0CFFA94F801EF0DF11D8081C7
:100970000E942404F110F7CF0F900F900F900F906A
:100980000F900F90DF91CF911F910F91FF900895DD
:100990000E94A8000E9418040E9428030E941901C6
:1009A00084E491E00E9477040E94980278940E9467
:1009B000FC0180E090E00895AA1BBB1B51E107C039
:1009C000AA1FBB1FA617B70710F0A61BB70B881FDF
:1009D000991F5A95A9F780959095BC01CD0108956E
:1009E000FB01DC0104C08D910190801921F441507C
:1009F0005040C8F7881B990B089501900D92002074
:100A0000E1F70895FB01DC014150504030F08D9139
:100A10000190801919F40020B9F7881B990B0895EB
:040A2000F894FFCF78
:100A24003137373200020031323341343536423700
:100A34003839432A3023440000546F6F206C6F6EA2
:100A44006720616E64206F7220756E6B6E6F772005
:100A5400636F6D6D616E646F200D0A004E45572003
:100A640050494E0053797374656D207374617274C8
:100A740061740D0A000D0A427574746F6E207072F1
:100A840065737365640D0A000D0A696E70757420D0
:100A940066726571756E63652073746172746564E2
:100AA400200D0A000D0A52455354494E470D0A00C1
:100AB4000D0A4177696174207374617274206672DF
:100AC4006571756E6365200D0A00456E7465726903
:100AD4006E67204368616E67652070696E200D0A39
:100AE40000556E6B6E6E6F7720636F6D6D61646E13
:100AF4006F200D0A000D0A436F72726563742070D3
:100B0400696E0D0A000D0A496E76616C6964207085
:100B1400696E0D0A000D0A2154494D45204F555464
:100B24002052454143484544210D0A000D0A4143E2
:100B340043455353204752414E54454420210D0A06
:100B4400000D0A4143434553532044454E4945440F
:100B540020210D0A000D0A54494D454F55542021BA
:100B64000D0A00596F757220696E707574203A0011
:100B7400546F206C6F6E6720636F6D6D616E646F70
:020B840000006F
:00000001FF
