:100000000C9434000C9451000C9451000C94510049
:100010000C9451000C9451000C9451000C9451001C
:100020000C9451000C9451000C9451000C9451000C
:100030000C9451000C9451000C9480040C945100C9
:100040000C9451000C9451000C94E0040C94510059
:100050000C9451000C9451000C9451000C945100DC
:100060000C9451000C94510011241FBECFEFD8E026
:10007000DEBFCDBF12E0A0E0B1E0E0E0FCE002C0F6
:1000800005900D92A03DB107D9F723E0A0EDB2E0B5
:1000900001C01D92AE33B207E1F70E947D050C94BA
:1000A000FE050C9400008AB18C638AB98BB18C6315
:1000B0008BB984B1807F84B985B18F6085B908958B
:1000C00080E09BB19C639BB98230D9F08330D9F03A
:1000D0008130A9F05A982AE12A95F1F700C093B12E
:1000E000E92FE17090FF12C0199B10C01A9B0DC040
:1000F0001B9B17C08F5F843021F780E008955B98C9
:10010000EACF5C98E8CF5D98E6CFE2E024E0829FFA
:10011000C00111248E5F9E4FE80FF92FF11D8081E1
:100120000895E3E0F3CFCF930E946000C82F8111C0
:1001300004C0C0E08C2FCF9108952FEF89EF90E09D
:10014000215080409040E1F700C000000E94600014
:100150008C13EFCF0E946000811561F38FE19EE464
:100160000197F1F700C00000F5CF0E9460008115F3
:1001700021F09091D002981305C090E08093D002B6
:10018000892F0895982FFACF0E94B5008111FCCFD6
:100190000895249A259A2C9A2D980E94E60360933C
:1001A000D1027093D2028093D3029093D402089527
:1001B0000E94E6036093D5027093D6028093D70223
:1001C0009093D80285B190E2892785B90E94E60311
:1001D0002091D5023091D6024091D7025091D80299
:1001E000621B730B840B950B6436710581059105B9
:1001F00068F385B190E2892785B908952D9A2C98E6
:1002000008952D982C9808952C9A2D9808950E9461
:10021000E6036093D5027093D6028093D702909341
:10022000D8028091D5029091D602A091D702B091C8
:10023000D8024091D1025091D2026091D3027091C4
:10024000D402841B950BA60BB70B853F9140A105EB
:10025000B10570F085B190E1892785B90E94E60368
:100260006093D1027093D2028093D3029093D40210
:1002700008952C9A2D9A0895A9EDB2E0FC010E94F0
:10028000CC050895382F292FA82FB92F40E050E032
:10029000832F922F0E94D1054817590778F0832F9A
:1002A000922F0E94D1050497B9F0832F922F0E94BC
:1002B000D1050E94390589E391E006C08C918053F5
:1002C0008A3030F08AE291E00E942C0580E00895A7
:1002D00011964F5F5F4FDCCF89E591E00E942C05BE
:1002E00081E0089544E050E069ED72E00E94BF05AE
:1002F0009C0181E0232B09F080E00895CF93DF93E8
:1003000000D000D00F92CDB7DEB789839A836B837C
:100310007C831D823D81832F90E02B813C8182175D
:10032000130640F00F900F900F900F900F90DF91F9
:10033000CF910895E981FA81E80FF91F60810E9449
:10034000F0052D812F5F2D83E5CF0F931F93CF9362
:10035000DF9300D000D00F92CDB7DEB789839A83A8
:100360006B837C831D828D81082F10E08B819C81A3
:100370000817190650F00F900F900F900F900F90E4
:10038000DF91CF911F910F910895C8010E94E80558
:10039000E981FA81E00FF11F80832D812F5F2D838A
:1003A000E2CF65E070E00E947E0165E070E089EDDB
:1003B00092E00C94A501811591F090910F03943077
:1003C00070F4E92FF0E0E65FFC4F80839F5F90932D
:1003D0000F030E94D80080E791E00E942C058091D5
:1003E0000F03843051F410920E038AE093E00E94D0
:1003F000720180930001109201018091000190919F
:100400000101089582E080930001109201010E9491
:10041000E60360931003709311038093120390938B
:1004200013030E94B5008A3241F40E94C4000E9466
:100430000D0383E891E00C942C0508958FE991E079
:100440000E942C050E94C400EAE0F3E084E0DF0192
:100450001D928A95E9F710920F031092090388E024
:10046000E1EFF2E0DF01982F1D929A95E9F7E9EFAD
:10047000F2E0DF01982F1D929A95E9F7E1E0F3E0B1
:10048000DF011D928A95E9F7AEEDB2E0E2E1F1E01D
:100490000E94CC050E9408038BEA91E00C942C0585
:1004A0000E941E02C0E0D1E00E943003833091051B
:1004B00009F489C0C0F48130910509F441C0029764
:1004C000E9F40E94FE0087E292E00E942C0588EB8E
:1004D0009BE00E94A304C1E0811531F30E941E023B
:1004E0000E94040109C08430910509F471C0059788
:1004F00009F473C0C111EBCFC0E0D6CF0E94020255
:1005000063E170E08EED92E00E943503811591F376
:1005100061EF72E08EED92E00E94880381EF92E03D
:100520000E94D103811539F085EC91E00E942C05E1
:100530000E942903DFCF8CED91E00E942C05DACFD9
:100540000E9407010E94B5000E94DB018093000118
:1005500090930101019739F480EF91E00E942C05FE
:100560000E941B03C7CF38F480E092E00E942C0564
:100570000E942203BFCF0E94E60320911003309116
:1005800011034091120350911303621B730B840BF0
:10059000950B693873418105910510F0D0930903DB
:1005A0008091000190910101029709F0A3CF809101
:1005B0000903811509F49ECF80E192E00E942C0589
:1005C0000E94140397CF0E9401018CE392E07DCF3B
:1005D0000E94390180E592E078CF0E94010189EF05
:1005E00092E00E947201813081F48EE592E00E94D7
:1005F0002C0581E093E00E944201811509F467CF48
:1006000081E093E00E94D10162CF8DE692E05DCF60
:100610001092150310921403089581E090E09093D6
:10062000150380931403089584E090E090931503DC
:1006300080931403089582E090E0909315038093D3
:100640001403089583E090E09093150380931403BE
:10065000089585E090E09093150380931403089526
:1006600080911403909115030895CF93DF9300D0E8
:1006700000D0CDB7DEB78B839C8369837A830E94D9
:100680000305811581F10E940C05909116032981C3
:100690003A81215031099217130668F58D3011F017
:1006A0008A30B9F4911599F0EB81FC81E90FF11DC5
:1006B000108286E892E00E942C058B819C810E942A
:1006C0002C058DE691E00E942C051092160381E026
:1006D0000BC021E0290F209316032B813C81290FA9
:1006E000311DF901808380E00F900F900F900F90E3
:1006F000DF91CF9108952B813C81290F311DF901A4
:1007000010821092160383E992E00E942C05EBCF31
:10071000CF93DF93EB01AC0120E030E0605F7F4FCF
:10072000DA01EC91E11579F14F5F5F4FEC3271F531
:10073000FA011292DE01213010F021F41896FC012A
:100740000E94CC052F5FCA013F5F383048F3211566
:1007500031F0313128F3213011F0353109F784EAD5
:1007600092E00E942C058FE691E0DE01FC010E94E0
:10077000CC05DE011896FC010E94CC05DE015096E6
:10078000FC010E94CC05DF91CF910895DA01EC9134
:10079000E111DACF2230C1F6DB01FC010E94CC0569
:1007A000D3CF45E050E067EC72E00E94DA059C018F
:1007B00081E0232B09F080E0089582E084BD93E07E
:1007C00095BD80936E0089EF87BD08952FB7F8948B
:1007D000609118037091190380911A0390911B0383
:1007E0002FBF0895E4E6F0E080818F7D8083EEE600
:1007F0008081826080830895EEE6F0E080818D7FC5
:100800008083E4E680818062808308958FB7F894C6
:10081000109218031092190310921A0310921B03DE
:100820008FBF0895EFB7F894209118033091190302
:1008300040911A0350911B03DC01CB01820F931FDF
:10084000A41FB51F8093180390931903A0931A0354
:10085000B0931B03EFBF0895EF92FF920F931F9386
:10086000EFB7F894209118033091190340911A03BF
:1008700050911B0379018A01E61AF70A080B190B3C
:10088000C701D8018093180390931903A0931A030A
:10089000B0931B03EFBF1F910F91FF90EF9008954E
:1008A000CF93DF93CDB7DEB728970FB6F894DEBFAE
:1008B0000FBECDBF69837A838B839C830E94E6033E
:1008C0006D837E838F8398870E94E6032D813E810E
:1008D0004F815885621B730B840B950B29813A81DC
:1008E0004B815C81621773078407950768F328962C
:1008F0000FB6F894DEBF0FBECDBFDF91CF91089544
:100900001F921FB61F9211248F939F93AF93BF9393
:100910008091180390911903A0911A03B0911B03C1
:100920000196A11DB11D8093180390931903A09304
:100930001A03B0931B03BF91AF919F918F911F90AA
:100940001FBE1F901895CF93DF9300D000D000D02A
:10095000CDB7DEB78D839E830E94E60369837A83D9
:100960008B839C830E94E60329813A814B815C81C1
:10097000621B730B840B950B4D815E8164177507A9
:100980008105910578F381E00F900F900F900F9003
:100990000F900F90DF91CF9108951092C50087E6D8
:1009A0008093C40086E08093C20088E98093C100F0
:1009B00008959091C00095FFFCCF8093C6000895E4
:1009C0002F932FB72F933F938F939F93EF93FF9383
:1009D0002091C60080911D0301968F7130911C03F8
:1009E000381741F0E0911D03F0E0E25EFC4F2083F8
:1009F00080931D03FF91EF919F918F913F912F91D4
:100A00002FBF2F91189520911D0390911C0381E019
:100A1000291301C080E008959FB7F89420911D0329
:100A200080911C03281779F0E0911C03F0E0E25E4E
:100A3000FC4F808120911C032F5F3F4F2F7120932B
:100A40001C039FBF089580E0FCCF9091C00095FFEC
:100A5000FCCF8093C6000895CF93DF93EC0188818B
:100A6000811103C0DF91CF91089521960E94250541
:100A7000F6CFFF920F931F93CF93DF9300D000D058
:100A800000D0CDB7DEB79C01892B71F480E30F90C5
:100A90000F900F900F900F900F90DF91CF911F91BB
:100AA0000F91FF900C94D904FE013196F12C8F0127
:100AB000C9016AE070E00E94AB05F394805D808319
:100AC0002A30310528F031969B0185E0F812F0CFED
:100AD000FA94F801EF0DF11D80810E94D904F11004
:100AE000F7CF0F900F900F900F900F900F90DF9116
:100AF000CF911F910F91FF90089500D000D00F92D9
:100B0000CDB7DEB70E9453000E94CD040E94DD03E2
:100B10000E94C90084E191E00E942C050E94080314
:100B2000789465E070E085E291E00E947E0165E0E6
:100B300070E0CE0101960E94A501CE0101960E94AF
:100B40003C010E94500280E090E00F900F900F90C7
:100B50000F900F900895AA1BBB1B51E107C0AA1F5D
:100B6000BB1FA617B70710F0A61BB70B881F991F4E
:100B70005A95A9F780959095BC01CD010895FB0188
:100B8000DC0104C08D910190801921F44150504046
:100B9000C8F7881B990B089501900D920020E1F78A
:100BA0000895FC0101900020E9F7809590958E0F43
:100BB0009F1F0895FB01DC014150504030F08D91A2
:100BC0000190801919F40020B9F7881B990B08953A
:100BD000F999FECF92BD81BDF89A992780B5089505
:100BE000262FF999FECF1FBA92BD81BD20BD0FB649
:100BF000F894FA9AF99A0FBE01960895F894FFCFE7
:100C000002003132334134353642373839432A30E5
:100C10002344000053797374656D2073746172749A
:100C200061740D0A0031373732006F6E6C792064C1
:100C30006967697473200D0A00546F206C6F6E67CA
:100C40002070696E206D7573742062652034206495
:100C50006967697473200D0A0050617373206B65B6
:100C6000792075707064617465642021200D0A001C
:100C70000D0A427574746F6E2070726573736564CB
:100C80000D0A000D0A696E707574206672657175C3
:100C90006E63652073746172746564200D0A000DC3
:100CA0000A52455354494E470D0A000D0A417769CF
:100CB00061742073746172742066726571756E63FD
:100CC00065200D0A00456E746572696E6720436881
:100CD000616E67652070696E200D0A00556E6B6E3F
:100CE0006E6F7720636F6D6D61646E6F200D0A000B
:100CF0000D0A436F72726563742070696E0D0A008D
:100D00000D0A496E76616C69642070696E0D0A0087
:100D10000D0A2154494D45204F5554205245414319
:100D2000484544210D0A000D0A41434345535320D1
:100D30004752414E54454420210D0A000D0A4143BB
:100D4000434553532044454E49454420210D0A0054
:100D50000D0A54494D454F555420210D0A00636F2B
:100D60007272656374206B6579200D0A00455252DA
:100D70004F52202120494E56414C494420494E5063
:100D80005554200D0A00596F757220696E70757484
:100D9000203A00546F206C6F6E6720636F6D6D6139
:100DA0006E646F00546F6F206C6F6E6720616E64AD
:100DB000206F7220756E6B6E6F7720636F6D6D6143
:100DC0006E646F200D0A004E45572050494E0000BA
:00000001FF
