:100000000C9434000C9451000C9451000C94510049
:100010000C9451000C9451000C9451000C9451001C
:100020000C9451000C9451000C9451000C9451000C
:100030000C9451000C9451000C945D030C945100ED
:100040000C9451000C9451000C9451000C945100EC
:100050000C9451000C9451000C9451000C945100DC
:100060000C9451000C94510011241FBECFEFD8E026
:10007000DEBFCDBF11E0A0E0B1E0ECEDF7E002C0E3
:1000800005900D92AC3FB107D9F722E0ACEFB1E09B
:1000900001C01D92A331B207E1F70E94C9030C947D
:1000A000EC030C9400008AB18C638AB98BB18C6329
:1000B0008BB984B1807F84B985B18F6085B908958B
:1000C00080E09BB19C639BB98230D9F08330D9F03A
:1000D0008130A9F05A982AE12A95F1F700C093B12E
:1000E000E92FE17090FF12C0199B10C01A9B0DC040
:1000F0001B9B17C08F5F843021F780E008955B98C9
:10010000EACF5C98E8CF5D98E6CFE2E024E0829FFA
:10011000C00111248A5F9E4FE80FF92FF11D8081E5
:100120000895E3E0F3CFCF930E946000C82F8111C0
:1001300004C0C0E08C2FCF9108952FEF89EF90E09D
:10014000215080409040E1F700C000000E94600014
:100150008C13EFCF0E946000811561F38FE19EE464
:100160000197F1F700C00000F5CF0C949300249A9A
:10017000259A2C9A2D980E94C3026093FC017093DB
:10018000FD018093FE019093FF0108950E94C30238
:100190006093000270930102809302029093030225
:1001A00085B190E2892785B90E94C302209100029F
:1001B000309101024091020250910302621B730BC5
:1001C000840B950B643671058105910568F385B143
:1001D00090E2892785B908952D9A2C9808950E9458
:1001E000C302609300027093010280930202909315
:1001F00003028091000290910102A0910202B0914D
:1002000003024091FC015091FD016091FE0170914B
:10021000FF01841B950BA60BB70B883E9340A105ED
:10022000B10570F085B190E1892785B90E94C302BC
:100230006093FC017093FD018093FE019093FF0198
:1002400008952C9A2D9808950E94C302609300028D
:100250007093010280930202909303028091000246
:1002600090910102A0910202B09103024091FC0121
:100270005091FD016091FE017091FF01841B950B6F
:10028000A60BB70B853F9140A105B10570F085B174
:1002900090E1892785B90E94C3026093FC017093A5
:1002A000FD018093FE019093FF01089586E191E0A6
:1002B0000E94BC030E94C30260930002709301027B
:1002C00080930202909303022C9A2D9A0E94C302FB
:1002D00020910002309101024091020250910302EC
:1002E000621B730B840B950B6436710581059105B8
:1002F00068F385B1807185B985B1807285B90E9436
:10030000C3026093000270930102809302029093F3
:1003100003022C9A2D9A0E94C30220910002309170
:1003200001024091020250910302621B730B840B85
:10033000950B643671058105910568F385B180716F
:1003400085B985B1807285B9089522E020930401B2
:1003500010920501811581F090910802E92FF0E0DB
:10036000EC5FFD4F80839F5F909308020E94C60060
:1003700089E391E00E94BC0380910802843051F42B
:1003800064E072E080E091E00E94850280930401C5
:1003900090930501809104019091050108950E94B8
:1003A000B5008A3291F40E9490020E9464020E9479
:1003B000C3026093090270930A0280930B02909328
:1003C0000C028CE491E00C94BC03089568E072E0A8
:1003D00088E092E00E949502C0E00E948002823094
:1003E000910509F44CC038F4892B51F50E94CF01D6
:1003F00009C0C1E0F2CF8330910509F456C00497DB
:1004000009F458C0C11541F340C038F488E791E0C1
:100410000E94BC030E94790225C00E94C302209161
:10042000090230910A0240910B0250910C02621BAA
:10043000730B840B950B683873418105910590F41B
:100440000E9424010E94B5000E94A501809304012E
:10045000909305010197C9F688E691E00E94BC03DC
:100460000E9472028091040190910501029751F659
:1004700088E891E00E94BC030E946B02C3CF0E94F7
:10048000EC008FE991E00E94BC0388EB9BE00E94A6
:100490008003811509F4ADCF68E072E088E092E056
:1004A0000E9495020E94210197CF0E94EF0084EBE9
:1004B00091E0E9CF0E94560188EC91E0E4CF1092E0
:1004C0000E0210920D02089581E090E090930E02CA
:1004D00080930D02089584E090E090930E02809343
:1004E0000D02089582E090E090930E0280930D0239
:1004F000089583E090E090930E0280930D0208959A
:1005000080910D0290910E02089544E050E00E9407
:10051000DF039C0181E090E0232B09F080E0089547
:100520000E94B5008111FCCF0895CF93DF9300D0D6
:1005300000D0CDB7DEB789839A836B837C8386ED49
:1005400091E00E94BC030E94900284E0EB81FC8158
:1005500011928A95E9F7E981FA8110820E945F027F
:1005600082EE91E00F900F900F900F90DF91CF915E
:100570000C94BC0382E084BD93E095BD80936E0033
:1005800089EF87BD08952FB7F89460910F0270919D
:10059000100280911102909112022FBF0895E4E69B
:1005A000F0E080818F7D8083EEE6808182608083B1
:1005B0000895EEE6F0E080818D7F8083E4E680811F
:1005C0008062808308958FB7F89410920F02109282
:1005D000100210921102109212028FBF0895EFB70D
:1005E000F89420910F023091100240911102509125
:1005F0001202DC01CB01820F931FA41FB51F809351
:100600000F0290931002A0931102B0931202EFBF59
:100610000895EF92FF920F931F93EFB7F8942091F4
:100620000F02309110024091110250911202790193
:100630008A01E61AF70A080B190BC701D801809343
:100640000F0290931002A0931102B0931202EFBF19
:100650001F910F91FF90EF900895CF93DF93CDB747
:10066000DEB728970FB6F894DEBF0FBECDBF698303
:100670007A838B839C830E94C3026D837E838F83E6
:1006800098870E94C3022D813E814F815885621B4D
:10069000730B840B950B29813A814B815C81621726
:1006A00073078407950768F328960FB6F894DEBFA2
:1006B0000FBECDBFDF91CF9108951F921FB61F923D
:1006C00011248F939F93AF93BF9380910F029091CA
:1006D0001002A0911102B09112020196A11DB11D4C
:1006E00080930F0290931002A0931102B093120214
:1006F000BF91AF919F918F911F901FBE1F90189532
:10070000CF93DF9300D000D000D0CDB7DEB78D837C
:100710009E830E94C30269837A838B839C830E9499
:10072000C30229813A814B815C81621B730B840B6C
:10073000950B4D815E81641775078105910578F3EE
:1007400081E00F900F900F900F900F900F90DF911E
:10075000CF9108959093C5008093C40088E0809362
:10076000C10086E08093C20008959091C00095FF7B
:10077000FCCF8093C6000895CF93DF93EC0188816E
:10078000811103C0DF91CF91089521960E94B50396
:10079000F6CF0E94530087E690E00E94AA030E94D1
:1007A000BA020E94B70088E291E00E94BC030E9456
:1007B0005F0278940E94E60180E090E00895FB01DA
:1007C000DC0104C08D910190801921F4415050400A
:0C07D000C8F7881B990B0895F894FFCF20
:1007DC003137373202003132334134353642373813
:1007EC0039432A3023440D0A737475636B20686592
:1007FC007265203F3F0D0A0053797374656D207349
:10080C007461727461740D0A000D0A427574746F10
:10081C006E20707265737365640D0A000D0A696E43
:10082C007075742066726571756E63652073746182
:10083C0072746564200D0A000D0A436F7272656351
:10084C00742070696E0D0A000D0A496E76616C6930
:10085C00642070696E0D0A000D0A2154494D452023
:10086C004F55542052454143484544210D0A000D33
:10087C000A414343455353204752414E544544206B
:10088C00210D0A000D0A4143434553532044454E64
:10089C0049454420210D0A000D0A54494D454F5538
:1008AC005420210D0A000D0A52455354494E470D50
:1008BC000A000D0A417769617420737461727420A7
:0C08CC0066726571756E6365200D0A0090
:00000001FF
