:100000000C9434000C9451000C9451000C94510049
:100010000C9451000C9451000C9451000C9451001C
:100020000C9451000C9451000C9451000C9451000C
:100030000C9451000C9451000C9448020C94510003
:100040000C9451000C9451000C9451000C945100EC
:100050000C9451000C9451000C9451000C945100DC
:100060000C9451000C94510011241FBECFEFD8E026
:10007000DEBFCDBF11E0A0E0B1E0E2EBF5E002C0F1
:1000800005900D92A632B107D9F721E0A6E2B1E0C2
:1000900001C01D92A933B207E1F70E94B4020C948B
:1000A000D7020C9400008AB18C638AB98BB18C633F
:1000B0008BB984B1807F84B985B18F6085B908958B
:1000C00080E09BB19C639BB98230D9F08330D9F03A
:1000D0008130A9F05A982AE12A95F1F700C093B12E
:1000E000E92FE17090FF12C0199B10C01A9B0DC040
:1000F0001B9B17C08F5F843021F780E008955B98C9
:10010000EACF5C98E8CF5D98E6CFE2E024E0829FFA
:10011000C00111248C5F9E4FE80FF92FF11D8081E3
:100120000895E3E0F3CFCF930E946000C82F8111C0
:1001300004C0C0E08C2FCF9108952FEF89EF90E09D
:10014000215080409040E1F700C000000E94600014
:100150008C13EFCF0E946000811561F38FE19EE464
:100160000197F1F700C00000F5CF0C949300249A9A
:10017000259A2C9A2D980E94AE01609326017093C7
:100180002701809328019093290108952D9A2C9896
:1001900008950E94AE0160932A0170932B01809311
:1001A0002C0190932D0180912A0190912B01A09117
:1001B0002C01B0912D0140912601509127016091B1
:1001C000280170912901841B950BA60BB70B883E63
:1001D0009340A105B10570F085B190E1892785B9FB
:1001E0000E94AE016093260170932701809328013D
:1001F0009093290108952C9A2D9808950E94AE019C
:1002000060932A0170932B0180932C0190932D0110
:1002100080912A0190912B01A0912C01B0912D0188
:100220004091260150912701609128017091290188
:10023000841B950BA60BB70B853F9140A105B1051B
:1002400070F085B190E1892785B90E94AE01609375
:100250002601709327018093280190932901089526
:1002600090913201E92FF0E0E25DFE4F808381152D
:1002700019F09F5F90933201943089F46EE271E03F
:1002800080E091E00E949401019710F029F0089518
:1002900082E090E00C948F0183E090E0FBCF089522
:1002A0000E94B5008A3221F481E090E00C948F0125
:1002B0000895C0E00E948A0182309105A1F038F4CF
:1002C000892B51F40E94500104C0C1E0F3CF039781
:1002D000C9F0C11571F309C00E94B5000E94300138
:1002E0000E94FE00F6CF0E94C60088EB9BE00E94B1
:1002F0006B02811551F382E391E00E949F010E94FD
:10030000FB00D7CF0E94C900F0CF109234011092A9
:1003100033010895809133019091340108959093B1
:10032000340180933301089544E050E00E94CA02F2
:100330009C0181E090E0232B09F480E00895FC010A
:10034000108280E090E00C948F0182E084BD93E005
:1003500095BD80936E0089EF87BD08952FB7F894FF
:10036000609135017091360180913701909138018B
:100370002FBF0895E4E6F0E080818F7D8083EEE674
:100380008081826080830895EEE6F0E080818D7F39
:100390008083E4E680818062808308958FB7F8943B
:1003A00010923501109236011092370110923801E7
:1003B0008FBF0895EFB7F894209135013091360141
:1003C0004091370150913801DC01CB01820F931F1E
:1003D000A41FB51F8093350190933601A093370178
:1003E000B0933801EFBF0895EF92FF920F931F93E0
:1003F000EFB7F894209135013091360140913701E3
:100400005091380179018A01E61AF70A080B190B95
:10041000C701D8018093350190933601A09337012D
:10042000B0933801EFBF1F910F91FF90EF900895A7
:10043000CF93DF93CDB7DEB728970FB6F894DEBF22
:100440000FBECDBF69837A838B839C830E94AE01EC
:100450006D837E838F8398870E94AE012D813E81BC
:100460004F815885621B730B840B950B29813A8150
:100470004B815C81621773078407950768F32896A0
:100480000FB6F894DEBF0FBECDBFDF91CF910895B8
:100490001F921FB61F9211248F939F93AF93BF9308
:1004A0008091350190913601A0913701B0913801CA
:1004B0000196A11DB11D8093350190933601A09343
:1004C0003701B0933801BF91AF919F918F911F90E9
:1004D0001FBE1F901895CF93DF9300D000D000D09F
:1004E000CDB7DEB78D839E830E94AE0169837A8388
:1004F0008B839C830E94AE0129813A814B815C8170
:10050000621B730B840B950B4D815E81641775071D
:100510008105910578F381E00F900F900F900F9077
:100520000F900F90DF91CF9108959093C500809325
:10053000C40088E08093C10086E08093C2000895E3
:100540009091C00095FFFCCF8093C6000895CF9393
:10055000DF93EC018881811103C0DF91CF91089571
:1005600021960E94A002F6CF0E94530087E690E0F9
:100570000E9495020E94A5010E94B70084E191E0CB
:100580000E94A7020E94850178940E94590180E090
:1005900090E00895FB01DC0104C08D910190801969
:1005A00021F441505040C8F7881B990B0895F894E6
:0205B000FFCF7B
:1005B20031373732313233413435364237383943C5
:1005C2002A30234453797374656D20737461727495
:0605D20061740D0A000037
:00000001FF
