:100000000C9434000C9451000C9451000C94510049
:100010000C9451000C9451000C9451000C9451001C
:100020000C9451000C9451000C9451000C9451000C
:100030000C9451000C9451000C94DA010C94510072
:100040000C9451000C9451000C9451000C945100EC
:100050000C9451000C9451000C9451000C945100DC
:100060000C9451000C94510011241FBECFEFD8E026
:10007000DEBFCDBF11E0A0E0B1E0ECEFF4E002C0E4
:1000800005900D92A632B107D9F721E0A6E2B1E0C2
:1000900001C01D92AA32B207E1F70E945B020C94E4
:1000A0007C020C9400008AB18C638AB98BB18C639A
:1000B0008BB984B1807F84B985B18F6085B908958B
:1000C00080E09BB19C639BB98230D9F08330D9F03A
:1000D0008130A9F05A982AE12A95F1F700C093B12E
:1000E000E92FE17090FF12C0199B10C01A9B0DC040
:1000F0001B9B17C08F5F843021F780E008955B98C9
:10010000EACF5C98E8CF5D98E6CFE2E024E0829FFA
:10011000C001112480509F4FE80FF92FF11D8081FD
:100120000895E3E0F3CFCF930E946000C82F8111C0
:1001300004C0C0E08C2FCF9108952FEF89EF90E09D
:10014000215080409040E1F700C000000E94600014
:100150008C13EFCF0E946000811561F38FE19EE464
:100160000197F1F700C00000F5CF0C949300249A9A
:10017000259A2C982D980895CF93DF9300D000D026
:10018000CDB7DEB70E94400169837A838B839C835D
:100190002C9A0E94400129813A814B815C81621B2B
:1001A000730B840B950B663971058105910588F3F6
:1001B00085B190E1892785B90F900F900F900F902E
:1001C000DF91CF910895CF93DF9300D000D0CDB7CA
:1001D000DEB70E94400169837A838B839C8385B15B
:1001E00090E2892785B90E94400129813A814B819B
:1001F0005C81621B730B840B950B6C3D7540810514
:10020000910588F385B190E2892785B90F900F9009
:100210000F900F90DF91CF910895CF93DF9300D08F
:1002200000D0CDB7DEB70E94400169837A838B830B
:100230009C8385B190E1892785B90E94400129817D
:100240003A814B815C81621B730B840B950B6C3D77
:1002500075408105910588F385B190E1892785B9BD
:100260000F900F900F900F90DF91CF91089582E043
:1002700084BD93E095BD80936E0089EF87BD08959E
:100280002FB7F89460912601709127018091280181
:10029000909129012FBF0895E4E6F0E080818F7DE1
:1002A0008083EEE68081826080830895EEE6F0E050
:1002B00080818D7F8083E4E68081806280830895E1
:1002C0008FB7F894109226011092270110922801FE
:1002D000109229018FBF0895EFB7F894209126015D
:1002E000309127014091280150912901DC01CB0177
:1002F000820F931FA41FB51F80932601909327019F
:10030000A0932801B0932901EFBF0895EF92FF92C7
:100310000F931F93EFB7F894209126013091270196
:10032000409128015091290179018A01E61AF70AC2
:10033000080B190BC701D801809326019093270160
:10034000A0932801B0932901EFBF1F910F91FF9057
:10035000EF900895CF93DF93CDB7DEB728970FB610
:10036000F894DEBF0FBECDBF69837A838B839C83F5
:100370000E9440016D837E838F8398870E94400195
:100380002D813E814F815885621B730B840B950B29
:1003900029813A814B815C81621773078407950735
:1003A00068F328960FB6F894DEBF0FBECDBFDF917D
:1003B000CF9108951F921FB61F9211248F939F9380
:1003C000AF93BF938091260190912701A0912801BE
:1003D000B09129010196A11DB11D80932601909332
:1003E0002701A0932801B0932901BF91AF919F915C
:1003F0008F911F901FBE1F901895CF93DF93CDB79D
:10040000DEB728970FB6F894DEBF0FBECDBF809140
:10041000210190912201A0912301B09124018D83AB
:100420009E83AF83B88710E00E94B500FE0131962D
:10043000E10FF11D80838115B9F30E94BC001F5F9D
:10044000143091F7BE016F5F7F4FCE0105960E9479
:100450005002892B19F40E94E300E5CF0E940D01A0
:10046000E2CF9093C5008093C40088E08093C100E0
:1004700086E08093C20008959091C00095FFFCCF64
:100480008093C6000895CF93DF93EC01888181119A
:1004900003C0DF91CF91089521960E943C02F6CFD0
:1004A00044E050E00E946F029C0181E090E0232B29
:1004B00009F480E008950E94530087E690E00E94CE
:1004C00031020E9437010E94B700789480E191E0E8
:1004D0000E9443020E94FD0180E090E00895FB012C
:1004E000DC0104C08D910190801921F441505040ED
:0C04F000C8F7881B990B0895F894FFCF03
:1004FC003132334134353642373839432A3023448C
:10050C0053797374656D20737461727461740D0A20
:06051C0000313737320008
:00000001FF
