:100000000C9434000C9451000C9451000C94510049
:100010000C9451000C9451000C9451000C9451001C
:100020000C9451000C9451000C9451000C9451000C
:100030000C9451000C9451000C944E020C945100FD
:100040000C9451000C9451000C9451000C945100EC
:100050000C9451000C9451000C9451000C945100DC
:100060000C9451000C94510011241FBECFEFD8E026
:10007000DEBFCDBF11E0A0E0B1E0EAE6F5E002C0EE
:1000800005900D92A033B107D9F721E0A0E3B1E0CC
:1000900001C01D92AB33B207E1F70E9490020C94AD
:1000A000B3020C9400008AB18C638AB98BB18C6363
:1000B0008BB984B1807F84B985B18F6085B908958B
:1000C00080E09BB19C639BB98230D9F08330D9F03A
:1000D0008130A9F05A982AE12A95F1F700C093B12E
:1000E000E92FE17090FF12C0199B10C01A9B0DC040
:1000F0001B9B17C08F5F843021F780E008955B98C9
:10010000EACF5C98E8CF5D98E6CFE2E024E0829FFA
:10011000C00111248C5F9E4FE80FF92FF11D8081E3
:100120000895E3E0F3CFCF930E946000C82F8111C0
:1001300004C0C0E08C2FCF9108952FEF89EF90E09D
:10014000215080409040E1F700C000000E94600014
:100150008C13EFCF0E946000811561F38FE19EE464
:100160000197F1F700C00000F5CF0C949300249A9A
:10017000259A2C9A2D980895CF93DF9300D000D024
:10018000CDB7DEB70E94B40169837A838B839C83E9
:1001900085B190E1892785B90E94B40129813A810E
:1001A0004B815C81621B730B840B950B6639710567
:1001B0008105910588F385B190E1892785B90F9074
:1001C0000F900F900F90DF91CF910895CF93DF9311
:1001D00000D000D0CDB7DEB784E191E00E94830269
:1001E0000E94B40169837A838B839C8385B190E2FA
:1001F000892785B90E94B40129813A814B815C81AC
:10020000621B730B840B950B6C3D7540810591054A
:1002100088F385B190E2892785B90F900F900F90F0
:100220000F90DF91CF910895CF93DF9300D000D04E
:10023000CDB7DEB70E94B40169837A838B839C8338
:1002400085B190E1892785B90E94B40129813A815D
:100250004B815C81621B730B840B950B6C3D75406D
:100260008105910588F385B190E1892785B90F90C3
:100270000F900F900F90DF91CF910895CF93DF9360
:10028000C0913401D0E00E94B500C05DDE4F88838C
:10029000811539F00E94BC00809134018F5F8093FA
:1002A0003401809134018430B9F4C0E008C0EC2FEF
:1002B000F0E0E05DFE4F80810E947C02CF5F809184
:1002C0003401C817A0F360E371E080E091E00E9480
:1002D0009A01019720F049F0DF91CF91089582E0D3
:1002E00090E0DF91CF910C94950183E090E0F9CFFD
:1002F0000E9490018130910549F00297C9F70E9450
:10030000E60084E391E00E94A501F2CF0E943E0145
:10031000EFCF81E090E0909336018093350108950E
:100320008091350190913601089590933601809324
:100330003501089544E050E00E94A6029C0181E04E
:1003400090E0232B09F480E00895FC01108280E006
:1003500090E00C94950182E084BD93E095BD80937C
:100360006E0089EF87BD08952FB7F894609137012B
:10037000709138018091390190913A012FBF089511
:10038000E4E6F0E080818F7D8083EEE6808182600C
:1003900080830895EEE6F0E080818D7F8083E4E63F
:1003A00080818062808308958FB7F894109237011E
:1003B000109238011092390110923A018FBF0895BE
:1003C000EFB7F8942091370130913801409139010D
:1003D00050913A01DC01CB01820F931FA41FB51F7E
:1003E0008093370190933801A0933901B0933A017B
:1003F000EFBF0895EF92FF920F931F93EFB7F8941A
:1004000020913701309138014091390150913A01E2
:1004100079018A01E61AF70A080B190BC701D801FE
:100420008093370190933801A0933901B0933A013A
:10043000EFBF1F910F91FF90EF900895CF93DF933F
:10044000CDB7DEB728970FB6F894DEBF0FBECDBF8D
:1004500069837A838B839C830E94B4016D837E833E
:100460008F8398870E94B4012D813E814F815885EA
:10047000621B730B840B950B29813A814B815C8144
:10048000621773078407950768F328960FB6F894E8
:10049000DEBF0FBECDBFDF91CF9108951F921FB673
:1004A0001F9211248F939F93AF93BF938091370135
:1004B00090913801A0913901B0913A010196A11DA6
:1004C000B11D8093370190933801A0933901B09307
:1004D0003A01BF91AF919F918F911F901FBE1F90C6
:1004E00018959093C5008093C40088E08093C10064
:1004F00086E08093C20008959091C00095FFFCCFE4
:100500008093C6000895CF93DF93EC018881811119
:1005100003C0DF91CF91089521960E947C02F6CF0F
:100520000E94530087E690E00E9471020E94AB0196
:100530000E94B7008FE191E00E9483020E9489012E
:1005400078940E94780180E090E00895FB01DC013E
:1005500004C08D910190801921F441505040C8F79A
:0A056000881B990B0895F894FFCF53
:10056A00313737323132334134353642373839430D
:10057A002A3023444765742068657265203F00531A
:10058A00797374656D20737461727461740D0A00F5
:00000001FF
