:100000000C9434000C9451000C9451000C94510049
:100010000C9451000C9451000C9451000C9451001C
:100020000C9451000C9451000C9451000C9451000C
:100030000C9451000C9451000C941B040C9451002E
:100040000C9451000C9451000C947B040C945100BE
:100050000C9451000C9451000C9451000C945100DC
:100060000C9451000C94510011241FBECFEFD8E026
:10007000DEBFCDBF12E0A0E0B1E0ECEFFAE002C0DD
:1000800005900D92A63BB107D9F723E0A6EBB2E0AD
:1000900001C01D92A432B207E1F70E9418050C942A
:1000A0007C050C9400008AB18C638AB98BB18C6397
:1000B0008BB984B1807F84B985B18F6085B908958B
:1000C00080E09BB19C639BB98230D9F08330D9F03A
:1000D0008130A9F05A982AE12A95F1F700C093B12E
:1000E000E92FE17090FF12C0199B10C01A9B0DC040
:1000F0001B9B17C08F5F843021F780E008955B98C9
:10010000EACF5C98E8CF5D98E6CFE2E024E0829FFA
:10011000C00111248E5F9E4FE80FF92FF11D8081E1
:100120000895E3E0F3CFCF930E946000C82F8111C0
:1001300004C0C0E08C2FCF9108952FEF89EF90E09D
:10014000215080409040E1F700C000000E94600014
:100150008C13EFCF0E946000811561F38FE19EE464
:100160000197F1F700C00000F5CF0E9460008115F3
:1001700021F09091B602981305C090E08093B602EA
:10018000892F0895982FFACF0E94B5008111FCCFD6
:100190000895249A259A2C9A2D980E9481036093A1
:1001A000B7027093B8028093B9029093BA0208958F
:1001B0000E9481036093BB027093BC028093BD02D6
:1001C0009093BE0285B190E2892785B90E94810390
:1001D0002091BB023091BC024091BD025091BE0201
:1001E000621B730B840B950B6436710581059105B9
:1001F00068F385B190E2892785B908952D9A2C98E6
:1002000008952D982C9808952C9A2D9808950E9461
:1002100081036093BB027093BC028093BD029093F4
:10022000BE028091BB029091BC02A091BD02B09130
:10023000BE024091B7025091B8026091B90270912C
:10024000BA02841B950BA60BB70B853F9140A10505
:10025000B10570F085B190E1892785B90E948103CD
:100260006093B7027093B8028093B9029093BA0278
:1002700008952C9A2D9A0895AFEBB2E0FC010E94EC
:1002800051050895382F292FA82FB92F40E050E0AD
:10029000832F922F0E9456054817590748F0832F45
:1002A000922F0E945605049789F089E391E006C0D9
:1002B0008C9180538A3030F08AE291E00E94C7042A
:1002C00080E0089511964F5F5F4FE2CF89E591E09E
:1002D0000E94C70481E0089544E050E0BC018FEB28
:1002E00092E00C946D0544E050E06FEB72E00E94E8
:1002F00044059C0181E0232B09F080E008958115DD
:1003000091F09091F502943070F4E92FF0E0E05113
:10031000FD4F80839F5F9093F5020E94D80080E795
:1003200091E00E94C7048091F502843051F410924C
:10033000F40280EF92E00E9473018093000110921A
:1003400001018091000190910101089582E0809364
:100350000001109201010E9481036093F6027093E4
:10036000F7028093F8029093F9020E94B5008A3256
:1003700041F40E94C4000E94A80283E891E00C941A
:10038000C70408958FE991E00E94C7040E94C40049
:10039000E0EFF2E084E0DF011D928A95E9F7109228
:1003A000F5021092EF0282E191E0A7EDB2E0FC01CC
:1003B0000E945105AFEDB2E0FC010E945105A7EE8D
:1003C000B2E0FC010E945105A4ECB2E0FC010E94E5
:1003D00051050E94A3028BEA91E00C94C7040E948D
:1003E000C201C0E0D1E00E94CB028330910509F444
:1003F00089C0C0F48130910509F441C00297E9F445
:100400000E94FE0087E292E00E94C70488EB9BE016
:100410000E943E04C1E0811531F30E94C2010E9496
:10042000040109C08430910509F471C0059709F4ED
:1004300073C0C111EBCFC0E0D6CF0E94A60163E12B
:1004400070E084EC92E00E94D002811591F367ED98
:1004500072E084EC92E00E94230387ED92E00E9418
:100460006C03811539F085EC91E00E94C7040E946D
:10047000C402DFCF8CED91E00E94C704DACF0E9466
:1004800007010E94B5000E947F01809300019093B4
:100490000101019739F480EF91E00E94C7040E94A6
:1004A000B602C7CF38F480E092E00E94C7040E94F1
:1004B000BD02BFCF0E9481032091F6023091F70266
:1004C0004091F8025091F902621B730B840B950B5B
:1004D000693873418105910510F0D093EF02809146
:1004E000000190910101029709F0A3CF8091EF02E2
:1004F000811509F49ECF80E192E00E94C7040E941A
:10050000AF0297CF0E9401018CE392E07DCF0E9461
:10051000390180E592E078CF8FED92E00E9473017F
:10052000813009F073CF8EE592E00E94C70487EE18
:1005300092E00E944201811509F468CF87EE92E0B3
:100540000E946C0163CF1092FB021092FA02089590
:1005500081E090E09093FB028093FA02089584E09A
:1005600090E09093FB028093FA02089582E090E07D
:100570009093FB028093FA02089583E090E09093B9
:10058000FB028093FA02089585E090E09093FB02CD
:100590008093FA0208958091FA029091FB020895E7
:1005A000CF93DF9300D000D0CDB7DEB78B839C8391
:1005B00069837A830E949E04811581F10E94A704B9
:1005C0009091FC0229813A8121503109921713063A
:1005D00068F58D3011F08A30B9F4911599F0EB81FE
:1005E000FC81E90FF11D10828DE692E00E94C704A4
:1005F0008B819C810E94C7048DE691E00E94C70414
:100600001092FC0281E00BC021E0290F2093FC0234
:100610002B813C81290F311DF901808380E00F90EF
:100620000F900F900F90DF91CF9108952B813C8117
:10063000290F311DF90110821092FC028AE792E025
:100640000E94C704EBCFCF93DF93EB01AC0120E016
:1006500030E0605F7F4FDA01EC91E11579F14F5F97
:100660005F4FEC3271F5FA011292DE01213010F089
:1006700021F41896FC010E9451052F5FCA013F5FCB
:10068000383048F3211531F0313128F3213011F0A1
:10069000353109F78BE892E00E94C7048FE691E0BC
:1006A000DE01FC010E945105DE011896FC010E944A
:1006B0005105DE015096FC010E945105DF91CF915A
:1006C0000895DA01EC91E111DACF2230C1F6DB01B5
:1006D000FC010E945105D3CF45E050E06EEA72E084
:1006E0000E945F059C0181E0232B09F080E00895C2
:1006F00082E084BD93E095BD80936E0089EF87BD55
:1007000008952FB7F8946091FE027091FF028091D6
:100710000003909101032FBF0895E4E6F0E080818B
:100720008F7D8083EEE68081826080830895EEE68F
:10073000F0E080818D7F8083E4E680818062808329
:1007400008958FB7F8941092FE021092FF02109253
:100750000003109201038FBF0895EFB7F894209122
:10076000FE023091FF024091000350910103DC0131
:10077000CB01820F931FA41FB51F8093FE0290939D
:10078000FF02A0930003B0930103EFBF0895EF921F
:10079000FF920F931F93EFB7F8942091FE023091D0
:1007A000FF02409100035091010379018A01E61A8A
:1007B000F70A080B190BC701D8018093FE0290932A
:1007C000FF02A0930003B0930103EFBF1F910F91AD
:1007D000FF90EF900895CF93DF93CDB7DEB72897C2
:1007E0000FB6F894DEBF0FBECDBF69837A838B83CB
:1007F0009C830E9481036D837E838F8398870E94F0
:1008000081032D813E814F815885621B730B840BC0
:10081000950B29813A814B815C81621773078407AC
:10082000950768F328960FB6F894DEBF0FBECDBFCC
:10083000DF91CF9108951F921FB61F9211248F93BD
:100840009F93AF93BF938091FE029091FF02A0917E
:100850000003B09101030196A11DB11D8093FE021A
:100860009093FF02A0930003B0930103BF91AF9157
:100870009F918F911F901FBE1F901895CF93DF936C
:1008800000D000D000D0CDB7DEB78D839E830E940C
:10089000810369837A838B839C830E9481032981EE
:1008A0003A814B815C81621B730B840B950B4D81EC
:1008B0005E81641775078105910578F381E00F90DB
:1008C0000F900F900F900F900F90DF91CF910895A0
:1008D0001092C50087E68093C40086E08093C20032
:1008E00088E98093C10008959091C00095FFFCCFE6
:1008F0008093C60008952F932FB72F933F938F9324
:100900009F93EF93FF932091C6008091030301967C
:100910008F7130910203381741F0E0910303F0E04A
:10092000EC5FFC4F208380930303FF91EF919F9135
:100930008F913F912F912FBF2F91189520910303F5
:100940009091020381E0291301C080E008959FB7D0
:10095000F8942091030380910203281779F0E09125
:100960000203F0E0EC5FFC4F8081209102032F5FD7
:100970003F4F2F71209302039FBF089580E0FCCF6B
:100980009091C00095FFFCCF8093C6000895CF934F
:10099000DF93EC018881811103C0DF91CF9108952D
:1009A00021960E94C004F6CFFF920F931F93CF931E
:1009B000DF9300D000D000D0CDB7DEB79C01892BEB
:1009C00071F480E30F900F900F900F900F900F90A5
:1009D000DF91CF911F910F91FF900C947404FE0151
:1009E0003196F12C8F01C9016AE070E00E94300558
:1009F000F394805D80832A30310528F031969B0185
:100A000085E0F812F0CFFA94F801EF0DF11D808126
:100A10000E947404F110F7CF0F900F900F900F9079
:100A20000F900F90DF91CF911F910F91FF9008953C
:100A30000E9453000E9468040E9478030E94C9002B
:100A400084E191E00E94C7040E94A302789485E2A9
:100A500091E00E943C010E94EF0180E090E0089547
:100A6000AA1BBB1B51E107C0AA1FBB1FA617B707D4
:100A700010F0A61BB70B881F991F5A95A9F78095F0
:100A80009095BC01CD010895FB01DC0104C08D915E
:100A90000190801921F441505040C8F7881B990BF0
:100AA000089501900D920020E1F70895FC01019056
:100AB0000020E9F7809590958E0F9F1F0895FB0108
:100AC000DC014150504030F08D910190801919F4B3
:100AD0000020B9F7881B990B0895FB01DC014150F8
:100AE000504048F001900D920020C9F701C01D92BE
:0C0AF00041505040E0F70895F894FFCF0B
:100AFC0002003132334134353642373839432A30EB
:100B0C002344000053797374656D2073746172749F
:100B1C0061740D0A0031373732006F6E6C792064C6
:100B2C006967697473200D0A00546F206C6F6E67CF
:100B3C002070696E206D757374206265203420649A
:100B4C006967697473200D0A0050617373206B65BB
:100B5C00792075707064617465642021200D0A0021
:100B6C000D0A427574746F6E2070726573736564D0
:100B7C000D0A000D0A696E707574206672657175C8
:100B8C006E63652073746172746564200D0A000DC8
:100B9C000A52455354494E470D0A000D0A417769D4
:100BAC0061742073746172742066726571756E6302
:100BBC0065200D0A00456E746572696E6720436886
:100BCC00616E67652070696E200D0A00556E6B6E44
:100BDC006E6F7720636F6D6D61646E6F200D0A0010
:100BEC000D0A436F72726563742070696E0D0A0092
:100BFC000D0A496E76616C69642070696E0D0A008D
:100C0C000D0A2154494D45204F555420524541431E
:100C1C00484544210D0A000D0A41434345535320D6
:100C2C004752414E54454420210D0A000D0A4143C0
:100C3C00434553532044454E49454420210D0A0059
:100C4C000D0A54494D454F555420210D0A00636F30
:100C5C007272656374206B6579200D0A00596F758B
:100C6C007220696E707574203A00546F206C6F6E30
:100C7C006720636F6D6D616E646F00546F6F206CD5
:100C8C006F6E6720616E64206F7220756E6B6E6F75
:100C9C007720636F6D6D616E646F200D0A004E4599
:060CAC00572050494E00E4
:00000001FF
